{
  "contractName": "Mayor",
  "abi": [
    {
      "inputs": [
        {
          "components": [
            {
              "internalType": "address",
              "name": "candidate_address",
              "type": "address"
            },
            {
              "internalType": "address",
              "name": "coalition_address",
              "type": "address"
            }
          ],
          "internalType": "struct Mayor.Register_candidate[]",
          "name": "_candidates",
          "type": "tuple[]"
        },
        {
          "internalType": "address payable",
          "name": "_escrow",
          "type": "address"
        },
        {
          "internalType": "uint32",
          "name": "_quorum",
          "type": "uint32"
        }
      ],
      "stateMutability": "nonpayable",
      "type": "constructor"
    },
    {
      "anonymous": false,
      "inputs": [
        {
          "indexed": false,
          "internalType": "address",
          "name": "_voter",
          "type": "address"
        }
      ],
      "name": "EnvelopeCast",
      "type": "event"
    },
    {
      "anonymous": false,
      "inputs": [
        {
          "indexed": false,
          "internalType": "address",
          "name": "_voter",
          "type": "address"
        },
        {
          "indexed": false,
          "internalType": "uint256",
          "name": "_soul",
          "type": "uint256"
        },
        {
          "indexed": false,
          "internalType": "address",
          "name": "_candidate",
          "type": "address"
        }
      ],
      "name": "EnvelopeOpen",
      "type": "event"
    },
    {
      "anonymous": false,
      "inputs": [
        {
          "indexed": false,
          "internalType": "address",
          "name": "_candidate",
          "type": "address"
        }
      ],
      "name": "NewMayor",
      "type": "event"
    },
    {
      "anonymous": false,
      "inputs": [
        {
          "indexed": false,
          "internalType": "address",
          "name": "_escrow",
          "type": "address"
        }
      ],
      "name": "Sayonara",
      "type": "event"
    },
    {
      "inputs": [],
      "name": "elections_over",
      "outputs": [
        {
          "internalType": "bool",
          "name": "",
          "type": "bool"
        }
      ],
      "stateMutability": "view",
      "type": "function",
      "constant": true
    },
    {
      "inputs": [],
      "name": "voting_condition",
      "outputs": [
        {
          "internalType": "uint32",
          "name": "quorum",
          "type": "uint32"
        },
        {
          "internalType": "uint32",
          "name": "envelopes_casted",
          "type": "uint32"
        },
        {
          "internalType": "uint32",
          "name": "envelopes_opened",
          "type": "uint32"
        }
      ],
      "stateMutability": "view",
      "type": "function",
      "constant": true
    },
    {
      "inputs": [],
      "name": "winner",
      "outputs": [
        {
          "internalType": "address payable",
          "name": "",
          "type": "address"
        }
      ],
      "stateMutability": "view",
      "type": "function",
      "constant": true
    },
    {
      "inputs": [
        {
          "internalType": "bytes32",
          "name": "_envelope",
          "type": "bytes32"
        }
      ],
      "name": "cast_envelope",
      "outputs": [],
      "stateMutability": "nonpayable",
      "type": "function"
    },
    {
      "inputs": [
        {
          "internalType": "uint256",
          "name": "_sigil",
          "type": "uint256"
        },
        {
          "internalType": "address",
          "name": "_candidate",
          "type": "address"
        }
      ],
      "name": "open_envelope",
      "outputs": [],
      "stateMutability": "payable",
      "type": "function",
      "payable": true
    },
    {
      "inputs": [],
      "name": "mayor_or_sayonara",
      "outputs": [],
      "stateMutability": "nonpayable",
      "type": "function"
    },
    {
      "inputs": [
        {
          "internalType": "uint256",
          "name": "_sigil",
          "type": "uint256"
        },
        {
          "internalType": "address",
          "name": "_candidate",
          "type": "address"
        },
        {
          "internalType": "uint256",
          "name": "_soul",
          "type": "uint256"
        }
      ],
      "name": "compute_envelope",
      "outputs": [
        {
          "internalType": "bytes32",
          "name": "",
          "type": "bytes32"
        }
      ],
      "stateMutability": "pure",
      "type": "function",
      "constant": true
    },
    {
      "inputs": [],
      "name": "get_candidate_addrs",
      "outputs": [
        {
          "internalType": "address[]",
          "name": "",
          "type": "address[]"
        }
      ],
      "stateMutability": "view",
      "type": "function",
      "constant": true
    },
    {
      "inputs": [],
      "name": "get_coalitions",
      "outputs": [
        {
          "components": [
            {
              "internalType": "address[]",
              "name": "members",
              "type": "address[]"
            },
            {
              "internalType": "address",
              "name": "addr",
              "type": "address"
            }
          ],
          "internalType": "struct Mayor.Return_coalition[]",
          "name": "",
          "type": "tuple[]"
        }
      ],
      "stateMutability": "view",
      "type": "function",
      "constant": true
    },
    {
      "inputs": [],
      "name": "get_voting_condition",
      "outputs": [
        {
          "internalType": "uint32",
          "name": "",
          "type": "uint32"
        },
        {
          "internalType": "uint32",
          "name": "",
          "type": "uint32"
        },
        {
          "internalType": "uint32",
          "name": "",
          "type": "uint32"
        }
      ],
      "stateMutability": "view",
      "type": "function",
      "constant": true
    }
  ],
  "bytecode": "0x60806040523480156200001157600080fd5b5060405162003146380380620031468339818101604052810190620000379190620007d6565b60005b8351811015620005a957600084828151811062000080577f4e487b7100000000000000000000000000000000000000000000000000000000600052603260045260246000fd5b60200260200101516000015190506000858381518110620000ca577f4e487b7100000000000000000000000000000000000000000000000000000000600052603260045260246000fd5b602002602001015160200151905060001515600b60008473ffffffffffffffffffffffffffffffffffffffff1673ffffffffffffffffffffffffffffffffffffffff16815260200190815260200160002060020160009054906101000a900460ff1615151462000171576040517f08c379a00000000000000000000000000000000000000000000000000000000081526004016200016890620008ba565b60405180910390fd5b60001515600a60008473ffffffffffffffffffffffffffffffffffffffff1673ffffffffffffffffffffffffffffffffffffffff16815260200190815260200160002060020160009054906101000a900460ff161515146200020a576040517f08c379a00000000000000000000000000000000000000000000000000000000081526004016200020190620008fe565b60405180910390fd5b6040518060600160405280600081526020016000815260200160011515815250600a60008473ffffffffffffffffffffffffffffffffffffffff1673ffffffffffffffffffffffffffffffffffffffff168152602001908152602001600020600082015181600001556020820151816001015560408201518160020160006101000a81548160ff021916908315150217905550905050600d829080600181540180825580915050600190039060005260206000200160009091909190916101000a81548173ffffffffffffffffffffffffffffffffffffffff021916908373ffffffffffffffffffffffffffffffffffffffff160217905550600073ffffffffffffffffffffffffffffffffffffffff168173ffffffffffffffffffffffffffffffffffffffff1614620005915760001515600a60008373ffffffffffffffffffffffffffffffffffffffff1673ffffffffffffffffffffffffffffffffffffffff16815260200190815260200160002060020160009054906101000a900460ff16151514620003d1576040517f08c379a0000000000000000000000000000000000000000000000000000000008152600401620003c890620008dc565b60405180910390fd5b600b60008273ffffffffffffffffffffffffffffffffffffffff1673ffffffffffffffffffffffffffffffffffffffff168152602001908152602001600020600001829080600181540180825580915050600190039060005260206000200160009091909190916101000a81548173ffffffffffffffffffffffffffffffffffffffff021916908373ffffffffffffffffffffffffffffffffffffffff16021790555060001515600b60008373ffffffffffffffffffffffffffffffffffffffff1673ffffffffffffffffffffffffffffffffffffffff16815260200190815260200160002060020160009054906101000a900460ff161515141562000590576001600b60008373ffffffffffffffffffffffffffffffffffffffff1673ffffffffffffffffffffffffffffffffffffffff16815260200190815260200160002060020160006101000a81548160ff021916908315150217905550600e819080600181540180825580915050600190039060005260206000200160009091909190916101000a81548173ffffffffffffffffffffffffffffffffffffffff021916908373ffffffffffffffffffffffffffffffffffffffff1602179055505b5b50508080620005a09062000a21565b9150506200003a565b50816000806101000a81548173ffffffffffffffffffffffffffffffffffffffff021916908373ffffffffffffffffffffffffffffffffffffffff16021790555060405180606001604052808263ffffffff168152602001600063ffffffff168152602001600063ffffffff16815250600360008201518160000160006101000a81548163ffffffff021916908363ffffffff16021790555060208201518160000160046101000a81548163ffffffff021916908363ffffffff16021790555060408201518160000160086101000a81548163ffffffff021916908363ffffffff16021790555090505050505062000c19565b6000620006b3620006ad8462000949565b62000920565b90508083825260208201905082856040860282011115620006d357600080fd5b60005b85811015620007075781620006ec88826200076c565b845260208401935060408301925050600181019050620006d6565b5050509392505050565b600081519050620007228162000bcb565b92915050565b600081519050620007398162000be5565b92915050565b600082601f8301126200075157600080fd5b8151620007638482602086016200069c565b91505092915050565b6000604082840312156200077f57600080fd5b6200078b604062000920565b905060006200079d8482850162000711565b6000830152506020620007b38482850162000711565b60208301525092915050565b600081519050620007d08162000bff565b92915050565b600080600060608486031215620007ec57600080fd5b600084015167ffffffffffffffff8111156200080757600080fd5b62000815868287016200073f565b9350506020620008288682870162000728565b92505060406200083b86828701620007bf565b9150509250925092565b60006200085460238362000978565b9150620008618262000ade565b604082019050919050565b60006200087b60238362000978565b9150620008888262000b2d565b604082019050919050565b6000620008a260238362000978565b9150620008af8262000b7c565b604082019050919050565b60006020820190508181036000830152620008d58162000845565b9050919050565b60006020820190508181036000830152620008f7816200086c565b9050919050565b60006020820190508181036000830152620009198162000893565b9050919050565b60006200092c6200093f565b90506200093a8282620009eb565b919050565b6000604051905090565b600067ffffffffffffffff82111562000967576200096662000a9e565b5b602082029050602081019050919050565b600082825260208201905092915050565b60006200099682620009b1565b9050919050565b6000620009aa82620009b1565b9050919050565b600073ffffffffffffffffffffffffffffffffffffffff82169050919050565b6000819050919050565b600063ffffffff82169050919050565b620009f68262000acd565b810181811067ffffffffffffffff8211171562000a185762000a1762000a9e565b5b80604052505050565b600062000a2e82620009d1565b91507fffffffffffffffffffffffffffffffffffffffffffffffffffffffffffffffff82141562000a645762000a6362000a6f565b5b600182019050919050565b7f4e487b7100000000000000000000000000000000000000000000000000000000600052601160045260246000fd5b7f4e487b7100000000000000000000000000000000000000000000000000000000600052604160045260246000fd5b6000601f19601f8301169050919050565b7f5468652063616e6469646174652063616e6e6f74206265206120636f616c697460008201527f696f6e0000000000000000000000000000000000000000000000000000000000602082015250565b7f54686520636f616c6974696f6e2063616e6e6f7420626520612063616e64696460008201527f6174650000000000000000000000000000000000000000000000000000000000602082015250565b7f5468652063616e64696461746520697320616c7265616479207265676973746560008201527f7265640000000000000000000000000000000000000000000000000000000000602082015250565b62000bd68162000989565b811462000be257600080fd5b50565b62000bf0816200099d565b811462000bfc57600080fd5b50565b62000c0a81620009db565b811462000c1657600080fd5b50565b61251d8062000c296000396000f3fe6080604052600436106100915760003560e01c80638df2c93d116100595780638df2c93d14610148578063c586ff6714610173578063dfbf53ae146101b0578063ed259f0a146101db578063ef5d9e941461020857610091565b806305698612146100965780631c9a34e3146100ad5780634c2afb13146100d65780635a26164b146101015780636dc095631461011d575b600080fd5b3480156100a257600080fd5b506100ab610235565b005b3480156100b957600080fd5b506100d460048036038101906100cf9190611a21565b610884565b005b3480156100e257600080fd5b506100eb610a09565b6040516100f89190611e86565b60405180910390f35b61011b60048036038101906101169190611a4a565b610c58565b005b34801561012957600080fd5b5061013261181b565b60405161013f9190611ea8565b60405180910390f35b34801561015457600080fd5b5061015d61182e565b60405161016a9190611e64565b60405180910390f35b34801561017f57600080fd5b5061019a60048036038101906101959190611a86565b6118bc565b6040516101a79190611ec3565b60405180910390f35b3480156101bc57600080fd5b506101c56118f2565b6040516101d29190611e12565b60405180910390f35b3480156101e757600080fd5b506101f0611918565b6040516101ff93929190611ff5565b60405180910390f35b34801561021457600080fd5b5061021d611960565b60405161022c93929190611ff5565b60405180910390f35b600360000160009054906101000a900463ffffffff1663ffffffff16600360000160089054906101000a900463ffffffff1663ffffffff16146102ad576040517f08c379a00000000000000000000000000000000000000000000000000000000081526004016102a490611f7e565b60405180910390fd5b60001515601060009054906101000a900460ff16151514610303576040517f08c379a00000000000000000000000000000000000000000000000000000000081526004016102fa90611f5e565b60405180910390fd5b6001601060006101000a81548160ff02191690831515021790555060008073ffffffffffffffffffffffffffffffffffffffff16600460000160009054906101000a900473ffffffffffffffffffffffffffffffffffffffff1673ffffffffffffffffffffffffffffffffffffffff16141580156103935750600360095461038b9190612116565b600460010154115b1561040b57600460000160009054906101000a900473ffffffffffffffffffffffffffffffffffffffff16600160006101000a81548173ffffffffffffffffffffffffffffffffffffffff021916908373ffffffffffffffffffffffffffffffffffffffff16021790555060046001015490506104d4565b600073ffffffffffffffffffffffffffffffffffffffff16600660000160009054906101000a900473ffffffffffffffffffffffffffffffffffffffff1673ffffffffffffffffffffffffffffffffffffffff16146104d357600660000160009054906101000a900473ffffffffffffffffffffffffffffffffffffffff16600160006101000a81548173ffffffffffffffffffffffffffffffffffffffff021916908373ffffffffffffffffffffffffffffffffffffffff16021790555060066001015490505b5b600073ffffffffffffffffffffffffffffffffffffffff16600160009054906101000a900473ffffffffffffffffffffffffffffffffffffffff1673ffffffffffffffffffffffffffffffffffffffff16146107c057600160009054906101000a900473ffffffffffffffffffffffffffffffffffffffff1673ffffffffffffffffffffffffffffffffffffffff166108fc829081150290604051600060405180830381858888f19350505050158015610592573d6000803e3d6000fd5b5060005b600f80549050811015610761576000600f82815481106105df577f4e487b7100000000000000000000000000000000000000000000000000000000600052603260045260246000fd5b9060005260206000200160009054906101000a900473ffffffffffffffffffffffffffffffffffffffff169050600c60008273ffffffffffffffffffffffffffffffffffffffff1673ffffffffffffffffffffffffffffffffffffffff16815260200190815260200160002060010160009054906101000a900473ffffffffffffffffffffffffffffffffffffffff1673ffffffffffffffffffffffffffffffffffffffff16600160009054906101000a900473ffffffffffffffffffffffffffffffffffffffff1673ffffffffffffffffffffffffffffffffffffffff161461074d578073ffffffffffffffffffffffffffffffffffffffff166108fc600c60008473ffffffffffffffffffffffffffffffffffffffff1673ffffffffffffffffffffffffffffffffffffffff168152602001908152602001600020600001549081150290604051600060405180830381858888f1935050505015801561074b573d6000803e3d6000fd5b505b508080610759906121f1565b915050610596565b507f871e83b983a039f59e0f4c08b833ff72e17dcba70607314804f13146995a8f76600160009054906101000a900473ffffffffffffffffffffffffffffffffffffffff166040516107b39190611df7565b60405180910390a1610881565b60008054906101000a900473ffffffffffffffffffffffffffffffffffffffff1673ffffffffffffffffffffffffffffffffffffffff166108fc6009549081150290604051600060405180830381858888f19350505050158015610828573d6000803e3d6000fd5b507fa1134e3746de254ae26240f518fc8ba38299f6dcf7399d77c8a117857b1c46c560008054906101000a900473ffffffffffffffffffffffffffffffffffffffff166040516108789190611df7565b60405180910390a15b50565b600360000160009054906101000a900463ffffffff1663ffffffff16600360000160049054906101000a900463ffffffff1663ffffffff16106108fc576040517f08c379a00000000000000000000000000000000000000000000000000000000081526004016108f390611ede565b60405180910390fd5b6000801b600260003373ffffffffffffffffffffffffffffffffffffffff1673ffffffffffffffffffffffffffffffffffffffff16815260200190815260200160002054141561098b576003600001600481819054906101000a900463ffffffff168092919061096b9061223a565b91906101000a81548163ffffffff021916908363ffffffff160217905550505b80600260003373ffffffffffffffffffffffffffffffffffffffff1673ffffffffffffffffffffffffffffffffffffffff168152602001908152602001600020819055507f8033de21ae72f21fa8773c90e60e7a5188cb8e44b97f487a5c362a491882ae34336040516109fe9190611ddc565b60405180910390a150565b60606000600e8054905067ffffffffffffffff811115610a52577f4e487b7100000000000000000000000000000000000000000000000000000000600052604160045260246000fd5b604051908082528060200260200182016040528015610a8b57816020015b610a786119b2565b815260200190600190039081610a705790505b50905060005b600e80549050811015610c50576000600e8281548110610ada577f4e487b7100000000000000000000000000000000000000000000000000000000600052603260045260246000fd5b9060005260206000200160009054906101000a900473ffffffffffffffffffffffffffffffffffffffff1690506040518060400160405280600b60008473ffffffffffffffffffffffffffffffffffffffff1673ffffffffffffffffffffffffffffffffffffffff168152602001908152602001600020600001805480602002602001604051908101604052809291908181526020018280548015610bd457602002820191906000526020600020905b8160009054906101000a900473ffffffffffffffffffffffffffffffffffffffff1673ffffffffffffffffffffffffffffffffffffffff1681526020019060010190808311610b8a575b505050505081526020018273ffffffffffffffffffffffffffffffffffffffff16815250838381518110610c31577f4e487b7100000000000000000000000000000000000000000000000000000000600052603260045260246000fd5b6020026020010181905250508080610c48906121f1565b915050610a91565b508091505090565b600360000160009054906101000a900463ffffffff1663ffffffff16600360000160049054906101000a900463ffffffff1663ffffffff1614610cd0576040517f08c379a0000000000000000000000000000000000000000000000000000000008152600401610cc790611f1e565b60405180910390fd5b6000801b600260003373ffffffffffffffffffffffffffffffffffffffff1673ffffffffffffffffffffffffffffffffffffffff168152602001908152602001600020541415610d55576040517f08c379a0000000000000000000000000000000000000000000000000000000008152600401610d4c90611f3e565b60405180910390fd5b60001515600c60003373ffffffffffffffffffffffffffffffffffffffff1673ffffffffffffffffffffffffffffffffffffffff16815260200190815260200160002060010160149054906101000a900460ff16151514610deb576040517f08c379a0000000000000000000000000000000000000000000000000000000008152600401610de290611f9e565b60405180910390fd5b6000600260003373ffffffffffffffffffffffffffffffffffffffff1673ffffffffffffffffffffffffffffffffffffffff1681526020019081526020016000205490506000610e3c8484346118bc565b9050808214610e80576040517f08c379a0000000000000000000000000000000000000000000000000000000008152600401610e7790611efe565b60405180910390fd5b6003600001600881819054906101000a900463ffffffff1680929190610ea59061223a565b91906101000a81548163ffffffff021916908363ffffffff1602179055505060011515600b60008573ffffffffffffffffffffffffffffffffffffffff1673ffffffffffffffffffffffffffffffffffffffff16815260200190815260200160002060020160009054906101000a900460ff161515141561125b57600f339080600181540180825580915050600190039060005260206000200160009091909190916101000a81548173ffffffffffffffffffffffffffffffffffffffff021916908373ffffffffffffffffffffffffffffffffffffffff16021790555060405180606001604052803481526020018473ffffffffffffffffffffffffffffffffffffffff16815260200160011515815250600c60003373ffffffffffffffffffffffffffffffffffffffff1673ffffffffffffffffffffffffffffffffffffffff1681526020019081526020016000206000820151816000015560208201518160010160006101000a81548173ffffffffffffffffffffffffffffffffffffffff021916908373ffffffffffffffffffffffffffffffffffffffff16021790555060408201518160010160146101000a81548160ff02191690831515021790555090505034600b60008573ffffffffffffffffffffffffffffffffffffffff1673ffffffffffffffffffffffffffffffffffffffff16815260200190815260200160002060010160008282546110bc91906120c0565b9250508190555034600960008282546110d591906120c0565b92505081905550600460010154600b60008573ffffffffffffffffffffffffffffffffffffffff1673ffffffffffffffffffffffffffffffffffffffff1681526020019081526020016000206001015411156111c05782600460000160006101000a81548173ffffffffffffffffffffffffffffffffffffffff021916908373ffffffffffffffffffffffffffffffffffffffff160217905550600b60008473ffffffffffffffffffffffffffffffffffffffff1673ffffffffffffffffffffffffffffffffffffffff16815260200190815260200160002060010154600460010181905550611256565b600460010154600b60008573ffffffffffffffffffffffffffffffffffffffff1673ffffffffffffffffffffffffffffffffffffffff168152602001908152602001600020600101541415611255576000600460000160006101000a81548173ffffffffffffffffffffffffffffffffffffffff021916908373ffffffffffffffffffffffffffffffffffffffff1602179055505b5b6117da565b60011515600a60008573ffffffffffffffffffffffffffffffffffffffff1673ffffffffffffffffffffffffffffffffffffffff16815260200190815260200160002060020160009054906101000a900460ff161515141561178b57600f339080600181540180825580915050600190039060005260206000200160009091909190916101000a81548173ffffffffffffffffffffffffffffffffffffffff021916908373ffffffffffffffffffffffffffffffffffffffff16021790555060405180606001604052803481526020018473ffffffffffffffffffffffffffffffffffffffff16815260200160011515815250600c60003373ffffffffffffffffffffffffffffffffffffffff1673ffffffffffffffffffffffffffffffffffffffff1681526020019081526020016000206000820151816000015560208201518160010160006101000a81548173ffffffffffffffffffffffffffffffffffffffff021916908373ffffffffffffffffffffffffffffffffffffffff16021790555060408201518160010160146101000a81548160ff02191690831515021790555090505034600a60008573ffffffffffffffffffffffffffffffffffffffff1673ffffffffffffffffffffffffffffffffffffffff168152602001908152602001600020600001600082825461145391906120c0565b92505081905550600a60008473ffffffffffffffffffffffffffffffffffffffff1673ffffffffffffffffffffffffffffffffffffffff16815260200190815260200160002060010160008154809291906114ad906121f1565b919050555034600960008282546114c491906120c0565b92505081905550600660010154600a60008573ffffffffffffffffffffffffffffffffffffffff1673ffffffffffffffffffffffffffffffffffffffff1681526020019081526020016000206000015411806115b85750600660010154600a60008573ffffffffffffffffffffffffffffffffffffffff1673ffffffffffffffffffffffffffffffffffffffff168152602001908152602001600020600001541480156115b75750600660020154600a60008573ffffffffffffffffffffffffffffffffffffffff1673ffffffffffffffffffffffffffffffffffffffff16815260200190815260200160002060010154115b5b1561169e5782600660000160006101000a81548173ffffffffffffffffffffffffffffffffffffffff021916908373ffffffffffffffffffffffffffffffffffffffff160217905550600a60008473ffffffffffffffffffffffffffffffffffffffff1673ffffffffffffffffffffffffffffffffffffffff16815260200190815260200160002060000154600660010181905550600a60008473ffffffffffffffffffffffffffffffffffffffff1673ffffffffffffffffffffffffffffffffffffffff16815260200190815260200160002060010154600660020181905550611786565b600660010154600a60008573ffffffffffffffffffffffffffffffffffffffff1673ffffffffffffffffffffffffffffffffffffffff1681526020019081526020016000206000015414801561173a5750600660020154600a60008573ffffffffffffffffffffffffffffffffffffffff1673ffffffffffffffffffffffffffffffffffffffff16815260200190815260200160002060010154145b15611785576000600660000160006101000a81548173ffffffffffffffffffffffffffffffffffffffff021916908373ffffffffffffffffffffffffffffffffffffffff1602179055505b5b6117d9565b60003390508073ffffffffffffffffffffffffffffffffffffffff166108fc349081150290604051600060405180830381858888f193505050501580156117d6573d6000803e3d6000fd5b50505b5b7f389bc8f710c058e5d0507e8bd7a82953376bea3c5d11fddd2b31144904c5fc0933348560405161180d93929190611e2d565b60405180910390a150505050565b601060009054906101000a900460ff1681565b6060600d8054806020026020016040519081016040528092919081815260200182805480156118b257602002820191906000526020600020905b8160009054906101000a900473ffffffffffffffffffffffffffffffffffffffff1673ffffffffffffffffffffffffffffffffffffffff1681526020019060010190808311611868575b5050505050905090565b60008383836040516020016118d393929190611fbe565b6040516020818303038152906040528051906020012090509392505050565b600160009054906101000a900473ffffffffffffffffffffffffffffffffffffffff1681565b60038060000160009054906101000a900463ffffffff16908060000160049054906101000a900463ffffffff16908060000160089054906101000a900463ffffffff16905083565b6000806000600360000160009054906101000a900463ffffffff16600360000160049054906101000a900463ffffffff16600360000160089054906101000a900463ffffffff16925092509250909192565b604051806040016040528060608152602001600073ffffffffffffffffffffffffffffffffffffffff1681525090565b6000813590506119f1816124a2565b92915050565b600081359050611a06816124b9565b92915050565b600081359050611a1b816124d0565b92915050565b600060208284031215611a3357600080fd5b6000611a41848285016119f7565b91505092915050565b60008060408385031215611a5d57600080fd5b6000611a6b85828601611a0c565b9250506020611a7c858286016119e2565b9150509250929050565b600080600060608486031215611a9b57600080fd5b6000611aa986828701611a0c565b9350506020611aba868287016119e2565b9250506040611acb86828701611a0c565b9150509250925092565b6000611ae18383611b1f565b60208301905092915050565b6000611af98383611d81565b905092915050565b611b0a816121bb565b82525050565b611b1981612159565b82525050565b611b2881612147565b82525050565b611b3781612147565b82525050565b6000611b488261204c565b611b52818561207c565b9350611b5d8361202c565b8060005b83811015611b8e578151611b758882611ad5565b9750611b8083612062565b925050600181019050611b61565b5085935050505092915050565b6000611ba68261204c565b611bb0818561208d565b9350611bbb8361202c565b8060005b83811015611bec578151611bd38882611ad5565b9750611bde83612062565b925050600181019050611bbf565b5085935050505092915050565b6000611c0482612057565b611c0e818561209e565b935083602082028501611c208561203c565b8060005b85811015611c5c5784840389528151611c3d8582611aed565b9450611c488361206f565b925060208a01995050600181019050611c24565b50829750879550505050505092915050565b611c778161216b565b82525050565b611c8681612177565b82525050565b6000611c99602f836120af565b9150611ca4826122c5565b604082019050919050565b6000611cbc6033836120af565b9150611cc782612314565b604082019050919050565b6000611cdf6036836120af565b9150611cea82612363565b604082019050919050565b6000611d026022836120af565b9150611d0d826123b2565b604082019050919050565b6000611d256016836120af565b9150611d3082612401565b602082019050919050565b6000611d48603c836120af565b9150611d538261242a565b604082019050919050565b6000611d6b6017836120af565b9150611d7682612479565b602082019050919050565b60006040830160008301518482036000860152611d9e8282611b3d565b9150506020830151611db36020860182611b1f565b508091505092915050565b611dc7816121a1565b82525050565b611dd6816121ab565b82525050565b6000602082019050611df16000830184611b2e565b92915050565b6000602082019050611e0c6000830184611b01565b92915050565b6000602082019050611e276000830184611b10565b92915050565b6000606082019050611e426000830186611b2e565b611e4f6020830185611dbe565b611e5c6040830184611b2e565b949350505050565b60006020820190508181036000830152611e7e8184611b9b565b905092915050565b60006020820190508181036000830152611ea08184611bf9565b905092915050565b6000602082019050611ebd6000830184611c6e565b92915050565b6000602082019050611ed86000830184611c7d565b92915050565b60006020820190508181036000830152611ef781611c8c565b9050919050565b60006020820190508181036000830152611f1781611caf565b9050919050565b60006020820190508181036000830152611f3781611cd2565b9050919050565b60006020820190508181036000830152611f5781611cf5565b9050919050565b60006020820190508181036000830152611f7781611d18565b9050919050565b60006020820190508181036000830152611f9781611d3b565b9050919050565b60006020820190508181036000830152611fb781611d5e565b9050919050565b6000606082019050611fd36000830186611dbe565b611fe06020830185611b2e565b611fed6040830184611dbe565b949350505050565b600060608201905061200a6000830186611dcd565b6120176020830185611dcd565b6120246040830184611dcd565b949350505050565b6000819050602082019050919050565b6000819050602082019050919050565b600081519050919050565b600081519050919050565b6000602082019050919050565b6000602082019050919050565b600082825260208201905092915050565b600082825260208201905092915050565b600082825260208201905092915050565b600082825260208201905092915050565b60006120cb826121a1565b91506120d6836121a1565b9250827fffffffffffffffffffffffffffffffffffffffffffffffffffffffffffffffff0382111561210b5761210a612267565b5b828201905092915050565b6000612121826121a1565b915061212c836121a1565b92508261213c5761213b612296565b5b828204905092915050565b600061215282612181565b9050919050565b600061216482612181565b9050919050565b60008115159050919050565b6000819050919050565b600073ffffffffffffffffffffffffffffffffffffffff82169050919050565b6000819050919050565b600063ffffffff82169050919050565b60006121c6826121cd565b9050919050565b60006121d8826121df565b9050919050565b60006121ea82612181565b9050919050565b60006121fc826121a1565b91507fffffffffffffffffffffffffffffffffffffffffffffffffffffffffffffffff82141561222f5761222e612267565b5b600182019050919050565b6000612245826121ab565b915063ffffffff82141561225c5761225b612267565b5b600182019050919050565b7f4e487b7100000000000000000000000000000000000000000000000000000000600052601160045260246000fd5b7f4e487b7100000000000000000000000000000000000000000000000000000000600052601260045260246000fd5b7f43616e6e6f7420766f7465206e6f772c20766f74696e672071756f72756d206860008201527f6173206265656e20726561636865640000000000000000000000000000000000602082015250565b7f53656e7420656e76656c6f706520646f6573206e6f7420636f72726573706f6e60008201527f6420746f20746865206f6e652063617374656400000000000000000000000000602082015250565b7f43616e6e6f74206f70656e20616e20656e76656c6f70652c20766f74696e672060008201527f71756f72756d206e6f7420726561636865642079657400000000000000000000602082015250565b7f5468652073656e64657220686173206e6f742063617374656420616e7920766f60008201527f7465000000000000000000000000000000000000000000000000000000000000602082015250565b7f54686520656c656374696f6e7320617265206f76657200000000000000000000600082015250565b7f43616e6e6f7420636865636b207468652077696e6e65722c206e65656420746f60008201527f206f70656e20616c6c207468652073656e7420656e76656c6f70657300000000602082015250565b7f456e76656c6f706520616c7265616479206f70656e6564000000000000000000600082015250565b6124ab81612147565b81146124b657600080fd5b50565b6124c281612177565b81146124cd57600080fd5b50565b6124d9816121a1565b81146124e457600080fd5b5056fea2646970667358221220f2995e799c4dafdecacb726eea6487f03ea2f24bf4de360349116a398858ff9c64736f6c63430008010033",
  "immutableReferences": {},
  "source": "pragma solidity 0.8.1;\n\ncontract Mayor {\n    \n    // Structs, events, and modifiers\n    \n    struct Register_candidate{\n        address candidate_address;\n        address coalition_address;\n    }\n\n    struct Voter {\n        uint soul;\n        address candidate;\n        bool opened;\n    }\n\n    struct Candidate{\n        uint soul;\n        uint voters_num;\n        bool init;\n    }\n\n    struct Coalition{\n        address[] members;\n        uint soul;\n        bool init;\n    }\n\n    struct Return_coalition{\n        address[] members;\n        address addr;\n    }\n\n    struct Coalition_winner{\n        address addr;\n        uint soul;\n    }\n\n    struct Candidate_winner{\n        address addr;\n        uint soul;\n        uint voters_num;\n    }\n\n    // Data to manage the confirmation\n    struct Conditions {\n        uint32 quorum;\n        uint32 envelopes_casted;\n        uint32 envelopes_opened;\n    }\n    \n    event NewMayor(address _candidate);\n    event Sayonara(address _escrow);\n    event EnvelopeCast(address _voter);\n    event EnvelopeOpen(address _voter, uint _soul, address _candidate);\n    \n    // Someone can vote as long as the quorum is not reached\n    modifier canVote() {\n        require(voting_condition.envelopes_casted < voting_condition.quorum, \"Cannot vote now, voting quorum has been reached\");\n        _;   \n    }\n    \n    // Envelopes can be opened only after receiving the quorum\n    modifier canOpen() {\n        require(voting_condition.envelopes_casted == voting_condition.quorum, \"Cannot open an envelope, voting quorum not reached yet\");\n        _;\n    }\n    \n    // The outcome of the confirmation can be computed as soon as all the casted envelopes have been opened\n    modifier canCheckOutcome() {\n        require(voting_condition.envelopes_opened == voting_condition.quorum, \"Cannot check the winner, need to open all the sent envelopes\");\n        _;\n    }\n    \n    // State attributes\n    \n    // Initialization variables\n    address payable escrow;\n    address payable public winner;\n\n    // Voting phase variables\n    mapping(address => bytes32) envelopes;\n\n    Conditions public voting_condition;\n    Coalition_winner coalition_winner;\n    Candidate_winner candidate_winner;\n\n    uint totSouls;\n    mapping (address => Candidate) candidates;\n    mapping (address => Coalition) coalitions;\n    mapping(address => Voter) voters;\n    address[] candidates_addrs;\n    address[] coalitions_addrs;\n    address[] voters_addrs;\n    bool public elections_over; //Flag for avoid reentrancy in mayor_or_sayonara\n\n    /// @notice The constructor only initializes internal variables\n    /// @param _candidates (address) The address of the mayor candidate and optionally also the coaliton's address\n    /// @param _escrow (address) The address of the escrow account\n    /// @param _quorum (address) The number of voters required to finalize the confirmation\n    constructor(Register_candidate[] memory _candidates, address payable _escrow, uint32 _quorum) public {\n        for(uint i = 0; i < _candidates.length; i++){\n            address candidate_addr = _candidates[i].candidate_address;\n            address coalition_addr = _candidates[i].coalition_address;\n\n            require(coalitions[candidate_addr].init == false, \"The candidate cannot be a coalition\");\n            require(candidates[candidate_addr].init == false, \"The candidate is already registered\");\n\n            candidates[candidate_addr] = Candidate({soul: 0, voters_num:0, init: true});\n            candidates_addrs.push(candidate_addr);\n            \n            if(coalition_addr != address(0x0)){\n                require(candidates[coalition_addr].init == false, \"The coalition cannot be a candidate\");\n                coalitions[coalition_addr].members.push(candidate_addr);\n                \n                if(coalitions[coalition_addr].init == false){\n                    coalitions[coalition_addr].init = true;\n                    coalitions_addrs.push(coalition_addr);\n                }\n            }\n        }\n\n        escrow = _escrow;\n        voting_condition = Conditions({quorum: _quorum, envelopes_casted: 0, envelopes_opened: 0});\n    }\n\n\n    /// @notice Store a received voting envelope\n    /// @param _envelope The envelope represented as the keccak256 hash of (sigil, doblon, soul) \n    function cast_envelope(bytes32 _envelope) canVote public {\n        \n        if(envelopes[msg.sender] == 0x0) // => NEW, update on 17/05/2021\n            voting_condition.envelopes_casted++;\n\n        envelopes[msg.sender] = _envelope;\n        emit EnvelopeCast(msg.sender);\n    }\n    \n    \n    /// @notice Open an envelope and store the vote information\n    /// @param _sigil (uint) The secret sigil of a voter\n    /// @param _candidate (address) The voting preference\n    /// @dev The soul is sent as crypto\n    /// @dev Need to recompute the hash to validate the envelope previously casted\n    function open_envelope(uint _sigil, address _candidate) canOpen public payable {       \n        require(envelopes[msg.sender] != 0x0, \"The sender has not casted any vote\");\n        require(voters[msg.sender].opened == false, \"Envelope already opened\");\n        \n        bytes32 _casted_envelope = envelopes[msg.sender];\n        bytes32 _sent_envelope = compute_envelope(_sigil, _candidate, msg.value);\n\n        require(_casted_envelope == _sent_envelope, \"Sent envelope does not correspond to the one casted\");\n        \n        voting_condition.envelopes_opened++;\n\n        if(coalitions[_candidate].init == true){ //if the voter has voted for a coalition\n            voters_addrs.push(msg.sender);\n            voters[msg.sender] = Voter({soul: msg.value, candidate: _candidate, opened: true});\n            coalitions[_candidate].soul += msg.value;\n            totSouls+=msg.value;\n            \n            if(coalitions[_candidate].soul > coalition_winner.soul){\n                coalition_winner.addr = _candidate;\n                coalition_winner.soul = coalitions[_candidate].soul;\n            }\n            else if(coalitions[_candidate].soul == coalition_winner.soul){\n                coalition_winner.addr = address(0x0); //Reset the winner due to tie\n            }\n        }\n        else if(candidates[_candidate].init == true){\n            voters_addrs.push(msg.sender);\n            voters[msg.sender] = Voter({soul: msg.value, candidate: _candidate, opened: true});\n            candidates[_candidate].soul += msg.value;\n            candidates[_candidate].voters_num++;\n            totSouls+=msg.value;\n\n            if((candidates[_candidate].soul > candidate_winner.soul) || (candidates[_candidate].soul == candidate_winner.soul && candidates[_candidate].voters_num > candidate_winner.voters_num)){ //if _candiate has more soul or equal soul and more voters than the actual winner\n                candidate_winner.addr = _candidate;\n                candidate_winner.soul = candidates[_candidate].soul;\n                candidate_winner.voters_num = candidates[_candidate].voters_num;\n            }\n            else if(candidates[_candidate].soul == candidate_winner.soul && candidates[_candidate].voters_num == candidate_winner.voters_num){ //case of tie\n                candidate_winner.addr = address(0x0); //reset the winner\n            }\n           \n        }\n        else{\n            address payable voter = payable(msg.sender);\n            voter.transfer(msg.value); //the voter has voted for someone that is not a candidate or a coalition\n        }\n\n        emit EnvelopeOpen(msg.sender, msg.value, _candidate);\n    }\n    \n    \n    /// @notice Either confirm or kick out the candidate. Refund the electors who voted for the losing outcome\n    function mayor_or_sayonara() canCheckOutcome public {\n        require(elections_over == false, \"The elections are over\");\n        elections_over = true;\n        uint winner_soul;\n\n        if(coalition_winner.addr != address(0x0) && coalition_winner.soul > totSouls/3){\n            winner = payable(coalition_winner.addr);\n            winner_soul = coalition_winner.soul;\n        }\n        else if(candidate_winner.addr != address(0x0)){\n            winner = payable(candidate_winner.addr);\n            winner_soul = candidate_winner.soul;\n        }\n        \n\n        if(winner != address(0x0)){\n            winner.transfer(winner_soul);\n\n            for(uint i = 0; i < voters_addrs.length; i++){\n                address payable voter = payable(voters_addrs[i]);\n                if(winner != voters[voter].candidate){\n                    voter.transfer(voters[voter].soul);\n                }\n            }\n\n            emit NewMayor(winner);\n        }\n        else{\n            escrow.transfer(totSouls);\n            emit Sayonara(escrow);\n        }\n    }\n \n \n    /// @notice Compute a voting envelope\n    /// @param _sigil (uint) The secret sigil of a voter\n    /// @param _candidate (address) The voting preference\n    /// @param _soul (uint) The soul associated to the vote\n    function compute_envelope(uint _sigil, address _candidate, uint _soul) public pure returns(bytes32) {\n        return keccak256(abi.encode(_sigil, _candidate, _soul));\n    }\n\n\n    function get_candidate_addrs() external view returns (address[] memory){\n        return candidates_addrs;\n    }\n\n    function get_coalitions() external view returns (Return_coalition[] memory){\n        Return_coalition[] memory coalitions_array = new Return_coalition[](coalitions_addrs.length);\n\n        for(uint i = 0; i < coalitions_addrs.length; i++){\n            address coalition = coalitions_addrs[i];\n            coalitions_array[i] = Return_coalition({members: coalitions[coalition].members, addr: coalition});\n        }\n\n        return coalitions_array;\n    }\n\n    function get_voting_condition() external view returns(uint32,uint32,uint32){\n        return (voting_condition.quorum,voting_condition.envelopes_casted,voting_condition.envelopes_opened);\n    }\n}",
  "sourcePath": "/home/fausto/GitHub/P2P-systems-and-blockchains-2021/Final Project/contracts/Mayor.sol",
  "compiler": {
    "name": "solc",
    "version": "0.8.1+commit.df193b15.Emscripten.clang"
  },
  "schemaVersion": "3.4.1",
  "updatedAt": "2021-06-20T15:10:19.177Z",
  "networkType": "ethereum",
  "devdoc": {
    "kind": "dev",
    "methods": {
      "cast_envelope(bytes32)": {
        "params": {
          "_envelope": "The envelope represented as the keccak256 hash of (sigil, doblon, soul) "
        }
      },
      "compute_envelope(uint256,address,uint256)": {
        "params": {
          "_candidate": "(address) The voting preference",
          "_sigil": "(uint) The secret sigil of a voter",
          "_soul": "(uint) The soul associated to the vote"
        }
      },
      "constructor": {
        "params": {
          "_candidates": "(address) The address of the mayor candidate and optionally also the coaliton's address",
          "_escrow": "(address) The address of the escrow account",
          "_quorum": "(address) The number of voters required to finalize the confirmation"
        }
      },
      "open_envelope(uint256,address)": {
        "details": "The soul is sent as cryptoNeed to recompute the hash to validate the envelope previously casted",
        "params": {
          "_candidate": "(address) The voting preference",
          "_sigil": "(uint) The secret sigil of a voter"
        }
      }
    },
    "version": 1
  },
  "userdoc": {
    "kind": "user",
    "methods": {
      "cast_envelope(bytes32)": {
        "notice": "Store a received voting envelope"
      },
      "compute_envelope(uint256,address,uint256)": {
        "notice": "Compute a voting envelope"
      },
      "constructor": {
        "notice": "The constructor only initializes internal variables"
      },
      "mayor_or_sayonara()": {
        "notice": "Either confirm or kick out the candidate. Refund the electors who voted for the losing outcome"
      },
      "open_envelope(uint256,address)": {
        "notice": "Open an envelope and store the vote information"
      }
    },
    "version": 1
  }
}