{
  "contractName": "Mayor",
  "abi": [
    {
      "inputs": [
        {
          "internalType": "address payable",
          "name": "_candidate",
          "type": "address"
        },
        {
          "internalType": "address payable",
          "name": "_escrow",
          "type": "address"
        },
        {
          "internalType": "uint32",
          "name": "_quorum",
          "type": "uint32"
        }
      ],
      "stateMutability": "nonpayable",
      "type": "constructor"
    },
    {
      "anonymous": false,
      "inputs": [
        {
          "indexed": false,
          "internalType": "address",
          "name": "_voter",
          "type": "address"
        }
      ],
      "name": "EnvelopeCast",
      "type": "event"
    },
    {
      "anonymous": false,
      "inputs": [
        {
          "indexed": false,
          "internalType": "address",
          "name": "_voter",
          "type": "address"
        },
        {
          "indexed": false,
          "internalType": "uint256",
          "name": "_soul",
          "type": "uint256"
        },
        {
          "indexed": false,
          "internalType": "bool",
          "name": "_doblon",
          "type": "bool"
        }
      ],
      "name": "EnvelopeOpen",
      "type": "event"
    },
    {
      "anonymous": false,
      "inputs": [
        {
          "indexed": false,
          "internalType": "address",
          "name": "_candidate",
          "type": "address"
        }
      ],
      "name": "NewMayor",
      "type": "event"
    },
    {
      "anonymous": false,
      "inputs": [
        {
          "indexed": false,
          "internalType": "address",
          "name": "_escrow",
          "type": "address"
        }
      ],
      "name": "Sayonara",
      "type": "event"
    },
    {
      "inputs": [],
      "name": "candidate",
      "outputs": [
        {
          "internalType": "address payable",
          "name": "",
          "type": "address"
        }
      ],
      "stateMutability": "view",
      "type": "function"
    },
    {
      "inputs": [],
      "name": "escrow",
      "outputs": [
        {
          "internalType": "address payable",
          "name": "",
          "type": "address"
        }
      ],
      "stateMutability": "view",
      "type": "function"
    },
    {
      "inputs": [],
      "name": "naySoul",
      "outputs": [
        {
          "internalType": "uint256",
          "name": "",
          "type": "uint256"
        }
      ],
      "stateMutability": "view",
      "type": "function"
    },
    {
      "inputs": [],
      "name": "yaySoul",
      "outputs": [
        {
          "internalType": "uint256",
          "name": "",
          "type": "uint256"
        }
      ],
      "stateMutability": "view",
      "type": "function"
    },
    {
      "inputs": [
        {
          "internalType": "bytes32",
          "name": "_envelope",
          "type": "bytes32"
        }
      ],
      "name": "cast_envelope",
      "outputs": [],
      "stateMutability": "nonpayable",
      "type": "function"
    },
    {
      "inputs": [
        {
          "internalType": "uint256",
          "name": "_sigil",
          "type": "uint256"
        },
        {
          "internalType": "bool",
          "name": "_doblon",
          "type": "bool"
        }
      ],
      "name": "open_envelope",
      "outputs": [],
      "stateMutability": "payable",
      "type": "function"
    },
    {
      "inputs": [],
      "name": "mayor_or_sayonara",
      "outputs": [],
      "stateMutability": "nonpayable",
      "type": "function"
    },
    {
      "inputs": [
        {
          "internalType": "uint256",
          "name": "_sigil",
          "type": "uint256"
        },
        {
          "internalType": "bool",
          "name": "_doblon",
          "type": "bool"
        },
        {
          "internalType": "uint256",
          "name": "_soul",
          "type": "uint256"
        }
      ],
      "name": "compute_envelope",
      "outputs": [
        {
          "internalType": "bytes32",
          "name": "",
          "type": "bytes32"
        }
      ],
      "stateMutability": "pure",
      "type": "function"
    }
  ],
  "bytecode": "0x60806040523480156200001157600080fd5b506040516200176c3803806200176c833981810160405281019062000037919062000198565b826000806101000a81548173ffffffffffffffffffffffffffffffffffffffff021916908373ffffffffffffffffffffffffffffffffffffffff16021790555081600160006101000a81548173ffffffffffffffffffffffffffffffffffffffff021916908373ffffffffffffffffffffffffffffffffffffffff16021790555060405180606001604052808263ffffffff168152602001600063ffffffff168152602001600063ffffffff16815250600360008201518160000160006101000a81548163ffffffff021916908363ffffffff16021790555060208201518160000160046101000a81548163ffffffff021916908363ffffffff16021790555060408201518160000160086101000a81548163ffffffff021916908363ffffffff16021790555090505050505062000266565b6000815190506200017b8162000232565b92915050565b60008151905062000192816200024c565b92915050565b600080600060608486031215620001ae57600080fd5b6000620001be868287016200016a565b9350506020620001d1868287016200016a565b9250506040620001e48682870162000181565b9150509250925092565b6000620001fb8262000202565b9050919050565b600073ffffffffffffffffffffffffffffffffffffffff82169050919050565b600063ffffffff82169050919050565b6200023d81620001ee565b81146200024957600080fd5b50565b620002578162000222565b81146200026357600080fd5b50565b6114f680620002766000396000f3fe60806040526004361061007b5760003560e01c80636c8381f81161004e5780636c8381f81461012857806378194cc6146101535780637a0550d01461017e578063e2fdcc171461019a5761007b565b806305698612146100805780631acecb50146100975780631c9a34e3146100c25780634979a402146100eb575b600080fd5b34801561008c57600080fd5b506100956101c5565b005b3480156100a357600080fd5b506100ac61065c565b6040516100b99190611096565b60405180910390f35b3480156100ce57600080fd5b506100e960048036038101906100e49190610d10565b610662565b005b3480156100f757600080fd5b50610112600480360381019061010d9190610d75565b6107e7565b60405161011f9190610f9b565b60405180910390f35b34801561013457600080fd5b5061013d61081d565b60405161014a9190610f49565b60405180910390f35b34801561015f57600080fd5b50610168610841565b6040516101759190611096565b60405180910390f35b61019860048036038101906101939190610d39565b610847565b005b3480156101a657600080fd5b506101af610cab565b6040516101bc9190610f49565b60405180910390f35b600360000160009054906101000a900463ffffffff1663ffffffff16600360000160089054906101000a900463ffffffff1663ffffffff161461023d576040517f08c379a000000000000000000000000000000000000000000000000000000000815260040161023490611056565b60405180910390fd5b60001515600960009054906101000a900460ff16151514610293576040517f08c379a000000000000000000000000000000000000000000000000000000000815260040161028a90611016565b60405180910390fd5b6001600960006101000a81548160ff02191690831515021790555060006004546005541190506060811561034f57600880548060200260200160405190810160405280929190818152602001828054801561034357602002820191906000526020600020905b8160009054906101000a900473ffffffffffffffffffffffffffffffffffffffff1673ffffffffffffffffffffffffffffffffffffffff16815260200190600101908083116102f9575b505050505090506103d9565b60078054806020026020016040519081016040528092919081815260200182805480156103d157602002820191906000526020600020905b8160009054906101000a900473ffffffffffffffffffffffffffffffffffffffff1673ffffffffffffffffffffffffffffffffffffffff1681526020019060010190808311610387575b505050505090505b60005b81518110156104c7576000828281518110610420577f4e487b7100000000000000000000000000000000000000000000000000000000600052603260045260246000fd5b602002602001015190508073ffffffffffffffffffffffffffffffffffffffff166108fc600660008473ffffffffffffffffffffffffffffffffffffffff1673ffffffffffffffffffffffffffffffffffffffff168152602001908152602001600020600001549081150290604051600060405180830381858888f193505050501580156104b2573d6000803e3d6000fd5b505080806104bf906111f9565b9150506103dc565b5081156105935760008054906101000a900473ffffffffffffffffffffffffffffffffffffffff1673ffffffffffffffffffffffffffffffffffffffff166108fc6005549081150290604051600060405180830381858888f19350505050158015610536573d6000803e3d6000fd5b507f871e83b983a039f59e0f4c08b833ff72e17dcba70607314804f13146995a8f7660008054906101000a900473ffffffffffffffffffffffffffffffffffffffff166040516105869190610f2e565b60405180910390a1610658565b600160009054906101000a900473ffffffffffffffffffffffffffffffffffffffff1673ffffffffffffffffffffffffffffffffffffffff166108fc6004549081150290604051600060405180830381858888f193505050501580156105fd573d6000803e3d6000fd5b507fa1134e3746de254ae26240f518fc8ba38299f6dcf7399d77c8a117857b1c46c5600160009054906101000a900473ffffffffffffffffffffffffffffffffffffffff1660405161064f9190610f2e565b60405180910390a15b5050565b60055481565b600360000160009054906101000a900463ffffffff1663ffffffff16600360000160049054906101000a900463ffffffff1663ffffffff16106106da576040517f08c379a00000000000000000000000000000000000000000000000000000000081526004016106d190610fb6565b60405180910390fd5b6000801b600260003373ffffffffffffffffffffffffffffffffffffffff1673ffffffffffffffffffffffffffffffffffffffff168152602001908152602001600020541415610769576003600001600481819054906101000a900463ffffffff168092919061074990611242565b91906101000a81548163ffffffff021916908363ffffffff160217905550505b80600260003373ffffffffffffffffffffffffffffffffffffffff1673ffffffffffffffffffffffffffffffffffffffff168152602001908152602001600020819055507f8033de21ae72f21fa8773c90e60e7a5188cb8e44b97f487a5c362a491882ae34336040516107dc9190610f13565b60405180910390a150565b60008383836040516020016107fe939291906110b1565b6040516020818303038152906040528051906020012090509392505050565b60008054906101000a900473ffffffffffffffffffffffffffffffffffffffff1681565b60045481565b600360000160009054906101000a900463ffffffff1663ffffffff16600360000160049054906101000a900463ffffffff1663ffffffff16146108bf576040517f08c379a00000000000000000000000000000000000000000000000000000000081526004016108b690610ff6565b60405180910390fd5b6000801b600260003373ffffffffffffffffffffffffffffffffffffffff1673ffffffffffffffffffffffffffffffffffffffff168152602001908152602001600020541415610944576040517f08c379a000000000000000000000000000000000000000000000000000000000815260040161093b90611036565b60405180910390fd5b60001515600660003373ffffffffffffffffffffffffffffffffffffffff1673ffffffffffffffffffffffffffffffffffffffff16815260200190815260200160002060010160019054906101000a900460ff161515146109da576040517f08c379a00000000000000000000000000000000000000000000000000000000081526004016109d190611076565b60405180910390fd5b6000600260003373ffffffffffffffffffffffffffffffffffffffff1673ffffffffffffffffffffffffffffffffffffffff1681526020019081526020016000205490506000610a2b8484346107e7565b9050808214610a6f576040517f08c379a0000000000000000000000000000000000000000000000000000000008152600401610a6690610fd6565b60405180910390fd5b6040518060600160405280348152602001841515815260200160011515815250600660003373ffffffffffffffffffffffffffffffffffffffff1673ffffffffffffffffffffffffffffffffffffffff1681526020019081526020016000206000820151816000015560208201518160010160006101000a81548160ff02191690831515021790555060408201518160010160016101000a81548160ff0219169083151502179055509050506003600001600881819054906101000a900463ffffffff1680929190610b4090611242565b91906101000a81548163ffffffff021916908363ffffffff16021790555050600115158315151415610bed576007339080600181540180825580915050600190039060005260206000200160009091909190916101000a81548173ffffffffffffffffffffffffffffffffffffffff021916908373ffffffffffffffffffffffffffffffffffffffff1602179055503460056000828254610be191906110f9565b92505081905550610c6a565b6008339080600181540180825580915050600190039060005260206000200160009091909190916101000a81548173ffffffffffffffffffffffffffffffffffffffff021916908373ffffffffffffffffffffffffffffffffffffffff1602179055503460046000828254610c6291906110f9565b925050819055505b7f71259ee777d4ad2ca5adf062fff9cf0b1a14a6f834e8e8011fc946715720006f333485604051610c9d93929190610f64565b60405180910390a150505050565b600160009054906101000a900473ffffffffffffffffffffffffffffffffffffffff1681565b600081359050610ce08161147b565b92915050565b600081359050610cf581611492565b92915050565b600081359050610d0a816114a9565b92915050565b600060208284031215610d2257600080fd5b6000610d3084828501610ce6565b91505092915050565b60008060408385031215610d4c57600080fd5b6000610d5a85828601610cfb565b9250506020610d6b85828601610cd1565b9150509250929050565b600080600060608486031215610d8a57600080fd5b6000610d9886828701610cfb565b9350506020610da986828701610cd1565b9250506040610dba86828701610cfb565b9150509250925092565b610dcd816111c3565b82525050565b610ddc81611161565b82525050565b610deb8161114f565b82525050565b610dfa81611173565b82525050565b610e098161117f565b82525050565b6000610e1c602f836110e8565b9150610e278261129e565b604082019050919050565b6000610e3f6033836110e8565b9150610e4a826112ed565b604082019050919050565b6000610e626036836110e8565b9150610e6d8261133c565b604082019050919050565b6000610e856016836110e8565b9150610e908261138b565b602082019050919050565b6000610ea86023836110e8565b9150610eb3826113b4565b604082019050919050565b6000610ecb603c836110e8565b9150610ed682611403565b604082019050919050565b6000610eee6017836110e8565b9150610ef982611452565b602082019050919050565b610f0d816111a9565b82525050565b6000602082019050610f286000830184610de2565b92915050565b6000602082019050610f436000830184610dc4565b92915050565b6000602082019050610f5e6000830184610dd3565b92915050565b6000606082019050610f796000830186610de2565b610f866020830185610f04565b610f936040830184610df1565b949350505050565b6000602082019050610fb06000830184610e00565b92915050565b60006020820190508181036000830152610fcf81610e0f565b9050919050565b60006020820190508181036000830152610fef81610e32565b9050919050565b6000602082019050818103600083015261100f81610e55565b9050919050565b6000602082019050818103600083015261102f81610e78565b9050919050565b6000602082019050818103600083015261104f81610e9b565b9050919050565b6000602082019050818103600083015261106f81610ebe565b9050919050565b6000602082019050818103600083015261108f81610ee1565b9050919050565b60006020820190506110ab6000830184610f04565b92915050565b60006060820190506110c66000830186610f04565b6110d36020830185610df1565b6110e06040830184610f04565b949350505050565b600082825260208201905092915050565b6000611104826111a9565b915061110f836111a9565b9250827fffffffffffffffffffffffffffffffffffffffffffffffffffffffffffffffff038211156111445761114361126f565b5b828201905092915050565b600061115a82611189565b9050919050565b600061116c82611189565b9050919050565b60008115159050919050565b6000819050919050565b600073ffffffffffffffffffffffffffffffffffffffff82169050919050565b6000819050919050565b600063ffffffff82169050919050565b60006111ce826111d5565b9050919050565b60006111e0826111e7565b9050919050565b60006111f282611189565b9050919050565b6000611204826111a9565b91507fffffffffffffffffffffffffffffffffffffffffffffffffffffffffffffffff8214156112375761123661126f565b5b600182019050919050565b600061124d826111b3565b915063ffffffff8214156112645761126361126f565b5b600182019050919050565b7f4e487b7100000000000000000000000000000000000000000000000000000000600052601160045260246000fd5b7f43616e6e6f7420766f7465206e6f772c20766f74696e672071756f72756d206860008201527f6173206265656e20726561636865640000000000000000000000000000000000602082015250565b7f53656e7420656e76656c6f706520646f6573206e6f7420636f72726573706f6e60008201527f6420746f20746865206f6e652063617374656400000000000000000000000000602082015250565b7f43616e6e6f74206f70656e20616e20656e76656c6f70652c20766f74696e672060008201527f71756f72756d206e6f7420726561636865642079657400000000000000000000602082015250565b7f54686520656c656374696f6e7320617265206f76657200000000000000000000600082015250565b7f5468652073656e64657220686173206e6f742063617374656420616e7920766f60008201527f7465730000000000000000000000000000000000000000000000000000000000602082015250565b7f43616e6e6f7420636865636b207468652077696e6e65722c206e65656420746f60008201527f206f70656e20616c6c207468652073656e7420656e76656c6f70657300000000602082015250565b7f456e76656c6f706520616c7265616479206f70656e6564000000000000000000600082015250565b61148481611173565b811461148f57600080fd5b50565b61149b8161117f565b81146114a657600080fd5b50565b6114b2816111a9565b81146114bd57600080fd5b5056fea2646970667358221220b0d2f5dbb86713c0bef4fccc6a7c50a45fb4be9053f6bdd91a89726a4c3dd02f64736f6c63430008010033",
  "immutableReferences": {},
  "source": "pragma solidity 0.8.1;\n\ncontract Mayor {\n    \n    // Structs, events, and modifiers\n    \n    // Store refund data\n    struct Refund {\n        uint soul;\n        bool doblon;\n        bool opened;\n    }\n    \n    // Data to manage the confirmation\n    struct Conditions {\n        uint32 quorum;\n        uint32 envelopes_casted;\n        uint32 envelopes_opened;\n    }\n    \n    event NewMayor(address _candidate);\n    event Sayonara(address _escrow);\n    event EnvelopeCast(address _voter);\n    event EnvelopeOpen(address _voter, uint _soul, bool _doblon);\n    \n    // Someone can vote as long as the quorum is not reached\n    modifier canVote() {\n        require(voting_condition.envelopes_casted < voting_condition.quorum, \"Cannot vote now, voting quorum has been reached\");\n        _;   \n    }\n    \n    // Envelopes can be opened only after receiving the quorum\n    modifier canOpen() {\n        require(voting_condition.envelopes_casted == voting_condition.quorum, \"Cannot open an envelope, voting quorum not reached yet\");\n        _;\n    }\n    \n    // The outcome of the confirmation can be computed as soon as all the casted envelopes have been opened\n    modifier canCheckOutcome() {\n        require(voting_condition.envelopes_opened == voting_condition.quorum, \"Cannot check the winner, need to open all the sent envelopes\");\n        _;\n    }\n    \n    // State attributes\n    \n    // Initialization variables\n    address payable public candidate;\n    address payable public escrow;\n    \n    // Voting phase variables\n    mapping(address => bytes32) envelopes;\n\n    Conditions voting_condition;\n\n    uint public naySoul;\n    uint public yaySoul;\n\n    // Refund phase variables\n    mapping(address => Refund) souls;\n    address[] yayVoters;\n    address[] nayVoters;\n    bool elections_over; //Flag for avoid reentrancy in mayor_or_sayonara\n\n    /// @notice The constructor only initializes internal variables\n    /// @param _candidate (address) The address of the mayor candidate\n    /// @param _escrow (address) The address of the escrow account\n    /// @param _quorum (address) The number of voters required to finalize the confirmation\n    constructor(address payable _candidate, address payable _escrow, uint32 _quorum) public {\n        candidate = _candidate;\n        escrow = _escrow;\n        voting_condition = Conditions({quorum: _quorum, envelopes_casted: 0, envelopes_opened: 0});\n    }\n\n\n    /// @notice Store a received voting envelope\n    /// @param _envelope The envelope represented as the keccak256 hash of (sigil, doblon, soul) \n    function cast_envelope(bytes32 _envelope) canVote public {\n        \n        if(envelopes[msg.sender] == 0x0) // => NEW, update on 17/05/2021\n            voting_condition.envelopes_casted++;\n\n        envelopes[msg.sender] = _envelope;\n        emit EnvelopeCast(msg.sender);\n    }\n    \n    \n    /// @notice Open an envelope and store the vote information\n    /// @param _sigil (uint) The secret sigil of a voter\n    /// @param _doblon (bool) The voting preference\n    /// @dev The soul is sent as crypto\n    /// @dev Need to recompute the hash to validate the envelope previously casted\n    function open_envelope(uint _sigil, bool _doblon) canOpen public payable {       \n        require(envelopes[msg.sender] != 0x0, \"The sender has not casted any votes\");\n        require(souls[msg.sender].opened == false, \"Envelope already opened\");\n        \n        bytes32 _casted_envelope = envelopes[msg.sender];\n        bytes32 _sent_envelope = compute_envelope(_sigil,_doblon, msg.value);\n\n        require(_casted_envelope == _sent_envelope, \"Sent envelope does not correspond to the one casted\");\n               \n        souls[msg.sender] = Refund({soul: msg.value, doblon: _doblon, opened: true});\n        voting_condition.envelopes_opened++;\n        \n        if(_doblon == true){\n            yayVoters.push(msg.sender);\n            yaySoul += msg.value;\n        }\n        else{\n            nayVoters.push(msg.sender);\n            naySoul += msg.value;\n        }\n\n        emit EnvelopeOpen(msg.sender, msg.value, _doblon);\n    }\n    \n    \n    /// @notice Either confirm or kick out the candidate. Refund the electors who voted for the losing outcome\n    function mayor_or_sayonara() canCheckOutcome public {\n        require(elections_over == false, \"The elections are over\");\n        elections_over = true;\n\n        bool result = yaySoul>naySoul;\n        address[] memory losers;\n\n        if(result){\n            losers = nayVoters;\n        }\n        else{\n            losers = yayVoters;\n        }\n\n        for(uint i; i<losers.length; i++){\n            address payable voter = payable(losers[i]);\n            voter.transfer(souls[voter].soul);\n        }\n\n        if(result){\n            candidate.transfer(yaySoul);\n            emit NewMayor(candidate);\n        }\n        else{\n            escrow.transfer(naySoul);\n            emit Sayonara(escrow);\n        }\n\n    }\n \n \n    /// @notice Compute a voting envelope\n    /// @param _sigil (uint) The secret sigil of a voter\n    /// @param _doblon (bool) The voting preference\n    /// @param _soul (uint) The soul associated to the vote\n    function compute_envelope(uint _sigil, bool _doblon, uint _soul) public pure returns(bytes32) {\n        return keccak256(abi.encode(_sigil, _doblon, _soul));\n    }\n    \n}",
  "sourcePath": "/home/fausto/GitHub/P2P-systems-and-blockchains-2021/Final Term/contracts/Mayor.sol",
  "compiler": {
    "name": "solc",
    "version": "0.8.1+commit.df193b15.Emscripten.clang"
  },
  "schemaVersion": "3.4.1",
  "updatedAt": "2021-05-23T09:32:26.986Z",
  "devdoc": {
    "kind": "dev",
    "methods": {
      "cast_envelope(bytes32)": {
        "params": {
          "_envelope": "The envelope represented as the keccak256 hash of (sigil, doblon, soul) "
        }
      },
      "compute_envelope(uint256,bool,uint256)": {
        "params": {
          "_doblon": "(bool) The voting preference",
          "_sigil": "(uint) The secret sigil of a voter",
          "_soul": "(uint) The soul associated to the vote"
        }
      },
      "constructor": {
        "params": {
          "_candidate": "(address) The address of the mayor candidate",
          "_escrow": "(address) The address of the escrow account",
          "_quorum": "(address) The number of voters required to finalize the confirmation"
        }
      },
      "open_envelope(uint256,bool)": {
        "details": "The soul is sent as cryptoNeed to recompute the hash to validate the envelope previously casted",
        "params": {
          "_doblon": "(bool) The voting preference",
          "_sigil": "(uint) The secret sigil of a voter"
        }
      }
    },
    "version": 1
  },
  "userdoc": {
    "kind": "user",
    "methods": {
      "cast_envelope(bytes32)": {
        "notice": "Store a received voting envelope"
      },
      "compute_envelope(uint256,bool,uint256)": {
        "notice": "Compute a voting envelope"
      },
      "constructor": {
        "notice": "The constructor only initializes internal variables"
      },
      "mayor_or_sayonara()": {
        "notice": "Either confirm or kick out the candidate. Refund the electors who voted for the losing outcome"
      },
      "open_envelope(uint256,bool)": {
        "notice": "Open an envelope and store the vote information"
      }
    },
    "version": 1
  }
}