{
  "contractName": "Mayor",
  "abi": [
    {
      "inputs": [
        {
          "components": [
            {
              "internalType": "address",
              "name": "candidate_address",
              "type": "address"
            },
            {
              "internalType": "address",
              "name": "coalition_address",
              "type": "address"
            }
          ],
          "internalType": "struct Mayor.Register_candidate[]",
          "name": "_candidates",
          "type": "tuple[]"
        },
        {
          "internalType": "address payable",
          "name": "_escrow",
          "type": "address"
        },
        {
          "internalType": "uint32",
          "name": "_quorum",
          "type": "uint32"
        }
      ],
      "stateMutability": "nonpayable",
      "type": "constructor"
    },
    {
      "anonymous": false,
      "inputs": [
        {
          "indexed": false,
          "internalType": "address",
          "name": "_voter",
          "type": "address"
        }
      ],
      "name": "EnvelopeCast",
      "type": "event"
    },
    {
      "anonymous": false,
      "inputs": [
        {
          "indexed": false,
          "internalType": "address",
          "name": "_voter",
          "type": "address"
        },
        {
          "indexed": false,
          "internalType": "uint256",
          "name": "_soul",
          "type": "uint256"
        },
        {
          "indexed": false,
          "internalType": "bool",
          "name": "_doblon",
          "type": "bool"
        }
      ],
      "name": "EnvelopeOpen",
      "type": "event"
    },
    {
      "anonymous": false,
      "inputs": [
        {
          "indexed": false,
          "internalType": "address",
          "name": "_candidate",
          "type": "address"
        }
      ],
      "name": "NewMayor",
      "type": "event"
    },
    {
      "anonymous": false,
      "inputs": [
        {
          "indexed": false,
          "internalType": "address",
          "name": "_escrow",
          "type": "address"
        }
      ],
      "name": "Sayonara",
      "type": "event"
    },
    {
      "inputs": [],
      "name": "escrow",
      "outputs": [
        {
          "internalType": "address payable",
          "name": "",
          "type": "address"
        }
      ],
      "stateMutability": "view",
      "type": "function"
    },
    {
      "inputs": [],
      "name": "totSouls",
      "outputs": [
        {
          "internalType": "uint256",
          "name": "",
          "type": "uint256"
        }
      ],
      "stateMutability": "view",
      "type": "function"
    }
  ],
  "bytecode": "0x608060405234801561001057600080fd5b50604051610b4f380380610b4f833981810160405281019061003291906105f4565b60005b83518110156103e1576000848281518110610079577f4e487b7100000000000000000000000000000000000000000000000000000000600052603260045260246000fd5b602002602001015160000151905060008583815181106100c2577f4e487b7100000000000000000000000000000000000000000000000000000000600052603260045260246000fd5b602002602001015160200151905060001515600560008473ffffffffffffffffffffffffffffffffffffffff1673ffffffffffffffffffffffffffffffffffffffff16815260200190815260200160002060020160009054906101000a900460ff16151514610166576040517f08c379a000000000000000000000000000000000000000000000000000000000815260040161015d906106c4565b60405180910390fd5b60001515600460008473ffffffffffffffffffffffffffffffffffffffff1673ffffffffffffffffffffffffffffffffffffffff16815260200190815260200160002060020160009054906101000a900460ff161515146101fc576040517f08c379a00000000000000000000000000000000000000000000000000000000081526004016101f3906106e4565b60405180910390fd5b6040518060600160405280600081526020016000815260200160011515815250600460008473ffffffffffffffffffffffffffffffffffffffff1673ffffffffffffffffffffffffffffffffffffffff168152602001908152602001600020600082015181600001556020820151816001015560408201518160020160006101000a81548160ff021916908315150217905550905050600073ffffffffffffffffffffffffffffffffffffffff168173ffffffffffffffffffffffffffffffffffffffff16146103cc57600073ffffffffffffffffffffffffffffffffffffffff168173ffffffffffffffffffffffffffffffffffffffff1614610335576040517f08c379a000000000000000000000000000000000000000000000000000000000815260040161032c90610704565b60405180910390fd5b60001515600460008373ffffffffffffffffffffffffffffffffffffffff1673ffffffffffffffffffffffffffffffffffffffff16815260200190815260200160002060020160009054906101000a900460ff161515146103cb576040517f08c379a00000000000000000000000000000000000000000000000000000000081526004016103c290610704565b60405180910390fd5b5b505080806103d990610815565b915050610035565b50816000806101000a81548173ffffffffffffffffffffffffffffffffffffffff021916908373ffffffffffffffffffffffffffffffffffffffff16021790555060405180606001604052808263ffffffff168152602001600063ffffffff168152602001600063ffffffff16815250600260008201518160000160006101000a81548163ffffffff021916908363ffffffff16021790555060208201518160000160046101000a81548163ffffffff021916908363ffffffff16021790555060408201518160000160086101000a81548163ffffffff021916908363ffffffff1602179055509050505050506109d9565b60006104e66104e184610749565b610724565b9050808382526020820190508285604086028201111561050557600080fd5b60005b85811015610535578161051b8882610593565b845260208401935060408301925050600181019050610508565b5050509392505050565b60008151905061054e81610994565b92915050565b600081519050610563816109ab565b92915050565b600082601f83011261057a57600080fd5b815161058a8482602086016104d3565b91505092915050565b6000604082840312156105a557600080fd5b6105af6040610724565b905060006105bf8482850161053f565b60008301525060206105d38482850161053f565b60208301525092915050565b6000815190506105ee816109c2565b92915050565b60008060006060848603121561060957600080fd5b600084015167ffffffffffffffff81111561062357600080fd5b61062f86828701610569565b935050602061064086828701610554565b9250506040610651868287016105df565b9150509250925092565b6000610668602383610775565b9150610673826108cd565b604082019050919050565b600061068b602083610775565b91506106968261091c565b602082019050919050565b60006106ae602383610775565b91506106b982610945565b604082019050919050565b600060208201905081810360008301526106dd8161065b565b9050919050565b600060208201905081810360008301526106fd8161067e565b9050919050565b6000602082019050818103600083015261071d816106a1565b9050919050565b600061072e61073f565b905061073a82826107e4565b919050565b6000604051905090565b600067ffffffffffffffff8211156107645761076361088d565b5b602082029050602081019050919050565b600082825260208201905092915050565b6000610791826107aa565b9050919050565b60006107a3826107aa565b9050919050565b600073ffffffffffffffffffffffffffffffffffffffff82169050919050565b6000819050919050565b600063ffffffff82169050919050565b6107ed826108bc565b810181811067ffffffffffffffff8211171561080c5761080b61088d565b5b80604052505050565b6000610820826107ca565b91507fffffffffffffffffffffffffffffffffffffffffffffffffffffffffffffffff8214156108535761085261085e565b5b600182019050919050565b7f4e487b7100000000000000000000000000000000000000000000000000000000600052601160045260246000fd5b7f4e487b7100000000000000000000000000000000000000000000000000000000600052604160045260246000fd5b6000601f19601f8301169050919050565b7f5468652063616e6469646174652063616e6e6f74206265206120636f616c697460008201527f696f6e0000000000000000000000000000000000000000000000000000000000602082015250565b7f5468652063616e64696461746520616c72656164792072656769737465726564600082015250565b7f54686520636f616c6974696f6e2063616e6e6f7420626520612063616e64696460008201527f6174650000000000000000000000000000000000000000000000000000000000602082015250565b61099d81610786565b81146109a857600080fd5b50565b6109b481610798565b81146109bf57600080fd5b50565b6109cb816107d4565b81146109d657600080fd5b50565b610167806109e86000396000f3fe608060405234801561001057600080fd5b50600436106100365760003560e01c80638e6f338b1461003b578063e2fdcc1714610059575b600080fd5b610043610077565b60405161005091906100da565b60405180910390f35b61006161007d565b60405161006e91906100bf565b60405180910390f35b60035481565b60008054906101000a900473ffffffffffffffffffffffffffffffffffffffff1681565b6100aa816100f5565b82525050565b6100b981610127565b82525050565b60006020820190506100d460008301846100a1565b92915050565b60006020820190506100ef60008301846100b0565b92915050565b600061010082610107565b9050919050565b600073ffffffffffffffffffffffffffffffffffffffff82169050919050565b600081905091905056fea26469706673582212206f51ba8c7f99f9c5b813efb9353f35809deff7924fff482c94d7152c0555228064736f6c63430008010033",
  "immutableReferences": {},
  "source": "pragma solidity 0.8.1;\n\ncontract Mayor {\n    \n    // Structs, events, and modifiers\n    \n    struct Register_candidate{\n        address candidate_address;\n        address coalition_address;\n    }\n\n    struct Candidate{\n        uint soul;\n        uint voters_num;\n        bool init;\n    }\n\n    struct Coalition{\n        address[] members;\n        uint soul;\n        bool init;\n    }\n\n    struct Voter {\n        uint soul;\n        address candidate;\n        bool opened;\n    }\n    \n    // Data to manage the confirmation\n    struct Conditions {\n        uint32 quorum;\n        uint32 envelopes_casted;\n        uint32 envelopes_opened;\n    }\n    \n    event NewMayor(address _candidate);\n    event Sayonara(address _escrow);\n    event EnvelopeCast(address _voter);\n    event EnvelopeOpen(address _voter, uint _soul, bool _doblon);\n    \n    // Someone can vote as long as the quorum is not reached\n    modifier canVote() {\n        require(voting_condition.envelopes_casted < voting_condition.quorum, \"Cannot vote now, voting quorum has been reached\");\n        _;   \n    }\n    \n    // Envelopes can be opened only after receiving the quorum\n    modifier canOpen() {\n        require(voting_condition.envelopes_casted == voting_condition.quorum, \"Cannot open an envelope, voting quorum not reached yet\");\n        _;\n    }\n    \n    // The outcome of the confirmation can be computed as soon as all the casted envelopes have been opened\n    modifier canCheckOutcome() {\n        require(voting_condition.envelopes_opened == voting_condition.quorum, \"Cannot check the winner, need to open all the sent envelopes\");\n        _;\n    }\n    \n    // State attributes\n    \n    // Initialization variables\n    address payable public escrow;\n    \n    // Voting phase variables\n    mapping(address => bytes32) envelopes;\n\n    Conditions voting_condition;\n\n    uint public totSouls;\n\n    // Refund phase variables\n    mapping (address => Candidate) candidates;\n    mapping (address => Coalition) coalitions;\n    mapping(address => Voter) voters;\n    address[] candidate_addrs;\n    address[] coalitions_addrs;\n    address[] voters_addrs;\n    bool elections_over; //Flag for avoid reentrancy in mayor_or_sayonara\n\n    /// @notice The constructor only initializes internal variables\n    /// @param _candidates (address) The address of the mayor candidate and optionally also the coaliton's address\n    /// @param _escrow (address) The address of the escrow account\n    /// @param _quorum (address) The number of voters required to finalize the confirmation\n    constructor(Register_candidate[] memory _candidates, address payable _escrow, uint32 _quorum) public {\n        for(uint i = 0; i < _candidates.length; i++){\n            address candidate_addr = _candidates[i].candidate_address;\n            address coalition_addr = _candidates[i].coalition_address;\n\n            require(coalitions[candidate_addr].init == false, \"The candidate cannot be a coalition\");\n            require(candidates[candidate_addr].init == false, \"The candidate already registered\");\n\n            candidates[candidate_addr] = Candidate({soul: 0, voters_num:0, init: true});\n            \n            if(coalition_addr != address(0x0)){\n                require(coalition_addr == address(0x0), \"The coalition cannot be a candidate\");\n                require(candidates[coalition_addr].init == false, \"The coalition cannot be a candidate\");\n\n                // if(coalitions[coalition_addr] == address(0x0)){\n                //     coalitions[coalition_addr] = Coalition({soul: 0});\n                // }\n                // coalitions[coalition_addr].members.push(candidate_addr);\n            }\n        }\n\n        escrow = _escrow;\n        voting_condition = Conditions({quorum: _quorum, envelopes_casted: 0, envelopes_opened: 0});\n    }\n\n\n    // /// @notice Store a received voting envelope\n    // /// @param _envelope The envelope represented as the keccak256 hash of (sigil, doblon, soul) \n    // function cast_envelope(bytes32 _envelope) canVote public {\n        \n    //     if(envelopes[msg.sender] == 0x0) // => NEW, update on 17/05/2021\n    //         voting_condition.envelopes_casted++;\n\n    //     envelopes[msg.sender] = _envelope;\n    //     emit EnvelopeCast(msg.sender);\n    // }\n    \n    \n    // /// @notice Open an envelope and store the vote information\n    // /// @param _sigil (uint) The secret sigil of a voter\n    // /// @param _doblon (bool) The voting preference\n    // /// @dev The soul is sent as crypto\n    // /// @dev Need to recompute the hash to validate the envelope previously casted\n    // function open_envelope(uint _sigil, bool _doblon) canOpen public payable {       \n    //     require(envelopes[msg.sender] != 0x0, \"The sender has not casted any votes\");\n    //     require(souls[msg.sender].opened == false, \"Envelope already opened\");\n        \n    //     bytes32 _casted_envelope = envelopes[msg.sender];\n    //     bytes32 _sent_envelope = compute_envelope(_sigil,_doblon, msg.value);\n\n    //     require(_casted_envelope == _sent_envelope, \"Sent envelope does not correspond to the one casted\");\n               \n    //     souls[msg.sender] = Refund({soul: msg.value, doblon: _doblon, opened: true});\n    //     voting_condition.envelopes_opened++;\n        \n    //     if(_doblon == true){\n    //         yayVoters.push(msg.sender);\n    //         yaySoul += msg.value;\n    //     }\n    //     else{\n    //         nayVoters.push(msg.sender);\n    //         naySoul += msg.value;\n    //     }\n\n    //     emit EnvelopeOpen(msg.sender, msg.value, _doblon);\n    // }\n    \n    \n    // /// @notice Either confirm or kick out the candidate. Refund the electors who voted for the losing outcome\n    // function mayor_or_sayonara() canCheckOutcome public {\n    //     require(elections_over == false, \"The elections are over\");\n    //     elections_over = true;\n\n    //     bool result = yaySoul>naySoul;\n    //     address[] memory losers;\n\n    //     if(result){\n    //         losers = nayVoters;\n    //     }\n    //     else{\n    //         losers = yayVoters;\n    //     }\n\n    //     for(uint i; i<losers.length; i++){\n    //         address payable voter = payable(losers[i]);\n    //         voter.transfer(souls[voter].soul);\n    //     }\n\n    //     if(result){\n    //         candidate.transfer(yaySoul);\n    //         emit NewMayor(candidate);\n    //     }\n    //     else{\n    //         escrow.transfer(naySoul);\n    //         emit Sayonara(escrow);\n    //     }\n\n    // }\n \n \n    // /// @notice Compute a voting envelope\n    // /// @param _sigil (uint) The secret sigil of a voter\n    // /// @param _doblon (bool) The voting preference\n    // /// @param _soul (uint) The soul associated to the vote\n    // function compute_envelope(uint _sigil, bool _doblon, uint _soul) public pure returns(bytes32) {\n    //     return keccak256(abi.encode(_sigil, _doblon, _soul));\n    // }\n    \n}",
  "sourcePath": "/home/fausto/GitHub/P2P-systems-and-blockchains-2021/Final Project/contracts/Mayor.sol",
  "compiler": {
    "name": "solc",
    "version": "0.8.1+commit.df193b15.Emscripten.clang"
  },
  "schemaVersion": "3.4.1",
  "updatedAt": "2021-06-15T14:53:22.327Z",
  "devdoc": {
    "kind": "dev",
    "methods": {
      "constructor": {
        "params": {
          "_candidates": "(address) The address of the mayor candidate and optionally also the coaliton's address",
          "_escrow": "(address) The address of the escrow account",
          "_quorum": "(address) The number of voters required to finalize the confirmation"
        }
      }
    },
    "version": 1
  },
  "userdoc": {
    "kind": "user",
    "methods": {
      "constructor": {
        "notice": "The constructor only initializes internal variables"
      }
    },
    "version": 1
  }
}