{
  "contractName": "Mayor",
  "abi": [
    {
      "inputs": [
        {
          "components": [
            {
              "internalType": "address",
              "name": "candidate_address",
              "type": "address"
            },
            {
              "internalType": "address",
              "name": "coalition_address",
              "type": "address"
            }
          ],
          "internalType": "struct Mayor.Register_candidate[]",
          "name": "_candidates",
          "type": "tuple[]"
        },
        {
          "internalType": "address payable",
          "name": "_escrow",
          "type": "address"
        },
        {
          "internalType": "uint32",
          "name": "_quorum",
          "type": "uint32"
        }
      ],
      "stateMutability": "nonpayable",
      "type": "constructor"
    },
    {
      "anonymous": false,
      "inputs": [
        {
          "indexed": false,
          "internalType": "address",
          "name": "_voter",
          "type": "address"
        }
      ],
      "name": "EnvelopeCast",
      "type": "event"
    },
    {
      "anonymous": false,
      "inputs": [
        {
          "indexed": false,
          "internalType": "address",
          "name": "_voter",
          "type": "address"
        },
        {
          "indexed": false,
          "internalType": "uint256",
          "name": "_soul",
          "type": "uint256"
        },
        {
          "indexed": false,
          "internalType": "address",
          "name": "_candidate",
          "type": "address"
        }
      ],
      "name": "EnvelopeOpen",
      "type": "event"
    },
    {
      "anonymous": false,
      "inputs": [
        {
          "indexed": false,
          "internalType": "address",
          "name": "_candidate",
          "type": "address"
        }
      ],
      "name": "NewMayor",
      "type": "event"
    },
    {
      "anonymous": false,
      "inputs": [
        {
          "indexed": false,
          "internalType": "address",
          "name": "_escrow",
          "type": "address"
        }
      ],
      "name": "Sayonara",
      "type": "event"
    },
    {
      "inputs": [],
      "name": "escrow",
      "outputs": [
        {
          "internalType": "address payable",
          "name": "",
          "type": "address"
        }
      ],
      "stateMutability": "view",
      "type": "function",
      "constant": true
    },
    {
      "inputs": [],
      "name": "totSouls",
      "outputs": [
        {
          "internalType": "uint256",
          "name": "",
          "type": "uint256"
        }
      ],
      "stateMutability": "view",
      "type": "function",
      "constant": true
    },
    {
      "inputs": [
        {
          "internalType": "bytes32",
          "name": "_envelope",
          "type": "bytes32"
        }
      ],
      "name": "cast_envelope",
      "outputs": [],
      "stateMutability": "nonpayable",
      "type": "function"
    },
    {
      "inputs": [
        {
          "internalType": "uint256",
          "name": "_sigil",
          "type": "uint256"
        },
        {
          "internalType": "address",
          "name": "_candidate",
          "type": "address"
        }
      ],
      "name": "open_envelope",
      "outputs": [],
      "stateMutability": "payable",
      "type": "function",
      "payable": true
    },
    {
      "inputs": [],
      "name": "mayor_or_sayonara",
      "outputs": [],
      "stateMutability": "nonpayable",
      "type": "function"
    },
    {
      "inputs": [
        {
          "internalType": "uint256",
          "name": "_sigil",
          "type": "uint256"
        },
        {
          "internalType": "address",
          "name": "_candidate",
          "type": "address"
        },
        {
          "internalType": "uint256",
          "name": "_soul",
          "type": "uint256"
        }
      ],
      "name": "compute_envelope",
      "outputs": [
        {
          "internalType": "bytes32",
          "name": "",
          "type": "bytes32"
        }
      ],
      "stateMutability": "pure",
      "type": "function",
      "constant": true
    }
  ],
  "bytecode": "0x60806040523480156200001157600080fd5b506040516200287438038062002874833981810160405281019062000037919062000778565b60005b83518110156200054b57600084828151811062000080577f4e487b7100000000000000000000000000000000000000000000000000000000600052603260045260246000fd5b60200260200101516000015190506000858381518110620000ca577f4e487b7100000000000000000000000000000000000000000000000000000000600052603260045260246000fd5b602002602001015160200151905060001515600a60008473ffffffffffffffffffffffffffffffffffffffff1673ffffffffffffffffffffffffffffffffffffffff16815260200190815260200160002060020160009054906101000a900460ff1615151462000171576040517f08c379a000000000000000000000000000000000000000000000000000000000815260040162000168906200085c565b60405180910390fd5b60001515600960008473ffffffffffffffffffffffffffffffffffffffff1673ffffffffffffffffffffffffffffffffffffffff16815260200190815260200160002060020160009054906101000a900460ff161515146200020a576040517f08c379a00000000000000000000000000000000000000000000000000000000081526004016200020190620008a0565b60405180910390fd5b6040518060600160405280600081526020016000815260200160011515815250600960008473ffffffffffffffffffffffffffffffffffffffff1673ffffffffffffffffffffffffffffffffffffffff168152602001908152602001600020600082015181600001556020820151816001015560408201518160020160006101000a81548160ff021916908315150217905550905050600c829080600181540180825580915050600190039060005260206000200160009091909190916101000a81548173ffffffffffffffffffffffffffffffffffffffff021916908373ffffffffffffffffffffffffffffffffffffffff160217905550600073ffffffffffffffffffffffffffffffffffffffff168173ffffffffffffffffffffffffffffffffffffffff1614620005335760001515600960008373ffffffffffffffffffffffffffffffffffffffff1673ffffffffffffffffffffffffffffffffffffffff16815260200190815260200160002060020160009054906101000a900460ff16151514620003d1576040517f08c379a0000000000000000000000000000000000000000000000000000000008152600401620003c8906200087e565b60405180910390fd5b6001600a60008373ffffffffffffffffffffffffffffffffffffffff1673ffffffffffffffffffffffffffffffffffffffff16815260200190815260200160002060020160006101000a81548160ff021916908315150217905550600a60008273ffffffffffffffffffffffffffffffffffffffff1673ffffffffffffffffffffffffffffffffffffffff168152602001908152602001600020600001829080600181540180825580915050600190039060005260206000200160009091909190916101000a81548173ffffffffffffffffffffffffffffffffffffffff021916908373ffffffffffffffffffffffffffffffffffffffff160217905550600d819080600181540180825580915050600190039060005260206000200160009091909190916101000a81548173ffffffffffffffffffffffffffffffffffffffff021916908373ffffffffffffffffffffffffffffffffffffffff1602179055505b505080806200054290620009c3565b9150506200003a565b50816000806101000a81548173ffffffffffffffffffffffffffffffffffffffff021916908373ffffffffffffffffffffffffffffffffffffffff16021790555060405180606001604052808263ffffffff168152602001600063ffffffff168152602001600063ffffffff16815250600260008201518160000160006101000a81548163ffffffff021916908363ffffffff16021790555060208201518160000160046101000a81548163ffffffff021916908363ffffffff16021790555060408201518160000160086101000a81548163ffffffff021916908363ffffffff16021790555090505050505062000bbb565b6000620006556200064f84620008eb565b620008c2565b905080838252602082019050828560408602820111156200067557600080fd5b60005b85811015620006a957816200068e88826200070e565b84526020840193506040830192505060018101905062000678565b5050509392505050565b600081519050620006c48162000b6d565b92915050565b600081519050620006db8162000b87565b92915050565b600082601f830112620006f357600080fd5b8151620007058482602086016200063e565b91505092915050565b6000604082840312156200072157600080fd5b6200072d6040620008c2565b905060006200073f84828501620006b3565b60008301525060206200075584828501620006b3565b60208301525092915050565b600081519050620007728162000ba1565b92915050565b6000806000606084860312156200078e57600080fd5b600084015167ffffffffffffffff811115620007a957600080fd5b620007b786828701620006e1565b9350506020620007ca86828701620006ca565b9250506040620007dd8682870162000761565b9150509250925092565b6000620007f66023836200091a565b9150620008038262000a80565b604082019050919050565b60006200081d6023836200091a565b91506200082a8262000acf565b604082019050919050565b6000620008446023836200091a565b9150620008518262000b1e565b604082019050919050565b600060208201905081810360008301526200087781620007e7565b9050919050565b6000602082019050818103600083015262000899816200080e565b9050919050565b60006020820190508181036000830152620008bb8162000835565b9050919050565b6000620008ce620008e1565b9050620008dc82826200098d565b919050565b6000604051905090565b600067ffffffffffffffff82111562000909576200090862000a40565b5b602082029050602081019050919050565b600082825260208201905092915050565b6000620009388262000953565b9050919050565b60006200094c8262000953565b9050919050565b600073ffffffffffffffffffffffffffffffffffffffff82169050919050565b6000819050919050565b600063ffffffff82169050919050565b620009988262000a6f565b810181811067ffffffffffffffff82111715620009ba57620009b962000a40565b5b80604052505050565b6000620009d08262000973565b91507fffffffffffffffffffffffffffffffffffffffffffffffffffffffffffffffff82141562000a065762000a0562000a11565b5b600182019050919050565b7f4e487b7100000000000000000000000000000000000000000000000000000000600052601160045260246000fd5b7f4e487b7100000000000000000000000000000000000000000000000000000000600052604160045260246000fd5b6000601f19601f8301169050919050565b7f5468652063616e6469646174652063616e6e6f74206265206120636f616c697460008201527f696f6e0000000000000000000000000000000000000000000000000000000000602082015250565b7f54686520636f616c6974696f6e2063616e6e6f7420626520612063616e64696460008201527f6174650000000000000000000000000000000000000000000000000000000000602082015250565b7f5468652063616e64696461746520697320616c7265616479207265676973746560008201527f7265640000000000000000000000000000000000000000000000000000000000602082015250565b62000b78816200092b565b811462000b8457600080fd5b50565b62000b92816200093f565b811462000b9e57600080fd5b50565b62000bac816200097d565b811462000bb857600080fd5b50565b611ca98062000bcb6000396000f3fe6080604052600436106100555760003560e01c8063056986121461005a5780631c9a34e3146100715780635a26164b1461009a5780638e6f338b146100b6578063c586ff67146100e1578063e2fdcc171461011e575b600080fd5b34801561006657600080fd5b5061006f610149565b005b34801561007d57600080fd5b506100986004803603810190610093919061147e565b610697565b005b6100b460048036038101906100af91906114a7565b61081c565b005b3480156100c257600080fd5b506100cb6113df565b6040516100d891906117f5565b60405180910390f35b3480156100ed57600080fd5b50610108600480360381019061010391906114e3565b6113e5565b60405161011591906116fa565b60405180910390f35b34801561012a57600080fd5b5061013361141b565b60405161014091906116a8565b60405180910390f35b600260000160009054906101000a900463ffffffff1663ffffffff16600260000160089054906101000a900463ffffffff1663ffffffff16146101c1576040517f08c379a00000000000000000000000000000000000000000000000000000000081526004016101b8906117b5565b60405180910390fd5b60001515600f60009054906101000a900460ff16151514610217576040517f08c379a000000000000000000000000000000000000000000000000000000000815260040161020e90611775565b60405180910390fd5b6001600f60006101000a81548160ff021916908315150217905550600080600073ffffffffffffffffffffffffffffffffffffffff16600360000160009054906101000a900473ffffffffffffffffffffffffffffffffffffffff1673ffffffffffffffffffffffffffffffffffffffff16141580156102a9575060036008546102a191906118ae565b600360010154115b156102e357600360000160009054906101000a900473ffffffffffffffffffffffffffffffffffffffff169150600360010154905061036e565b600073ffffffffffffffffffffffffffffffffffffffff16600560000160009054906101000a900473ffffffffffffffffffffffffffffffffffffffff1673ffffffffffffffffffffffffffffffffffffffff161461036d57600560000160009054906101000a900473ffffffffffffffffffffffffffffffffffffffff16915060056001015490505b5b600073ffffffffffffffffffffffffffffffffffffffff168273ffffffffffffffffffffffffffffffffffffffff16146105d2578173ffffffffffffffffffffffffffffffffffffffff166108fc829081150290604051600060405180830381858888f193505050501580156103e8573d6000803e3d6000fd5b5060005b600e80549050811015610595576000600e8281548110610435577f4e487b7100000000000000000000000000000000000000000000000000000000600052603260045260246000fd5b9060005260206000200160009054906101000a900473ffffffffffffffffffffffffffffffffffffffff169050600b60008273ffffffffffffffffffffffffffffffffffffffff1673ffffffffffffffffffffffffffffffffffffffff16815260200190815260200160002060010160009054906101000a900473ffffffffffffffffffffffffffffffffffffffff1673ffffffffffffffffffffffffffffffffffffffff168473ffffffffffffffffffffffffffffffffffffffff1614610581578073ffffffffffffffffffffffffffffffffffffffff166108fc600b60008473ffffffffffffffffffffffffffffffffffffffff1673ffffffffffffffffffffffffffffffffffffffff168152602001908152602001600020600001549081150290604051600060405180830381858888f1935050505015801561057f573d6000803e3d6000fd5b505b50808061058d9061197d565b9150506103ec565b507f871e83b983a039f59e0f4c08b833ff72e17dcba70607314804f13146995a8f76826040516105c5919061168d565b60405180910390a1610693565b60008054906101000a900473ffffffffffffffffffffffffffffffffffffffff1673ffffffffffffffffffffffffffffffffffffffff166108fc6008549081150290604051600060405180830381858888f1935050505015801561063a573d6000803e3d6000fd5b507fa1134e3746de254ae26240f518fc8ba38299f6dcf7399d77c8a117857b1c46c560008054906101000a900473ffffffffffffffffffffffffffffffffffffffff1660405161068a919061168d565b60405180910390a15b5050565b600260000160009054906101000a900463ffffffff1663ffffffff16600260000160049054906101000a900463ffffffff1663ffffffff161061070f576040517f08c379a000000000000000000000000000000000000000000000000000000000815260040161070690611715565b60405180910390fd5b6000801b600160003373ffffffffffffffffffffffffffffffffffffffff1673ffffffffffffffffffffffffffffffffffffffff16815260200190815260200160002054141561079e576002600001600481819054906101000a900463ffffffff168092919061077e906119c6565b91906101000a81548163ffffffff021916908363ffffffff160217905550505b80600160003373ffffffffffffffffffffffffffffffffffffffff1673ffffffffffffffffffffffffffffffffffffffff168152602001908152602001600020819055507f8033de21ae72f21fa8773c90e60e7a5188cb8e44b97f487a5c362a491882ae34336040516108119190611672565b60405180910390a150565b600260000160009054906101000a900463ffffffff1663ffffffff16600260000160049054906101000a900463ffffffff1663ffffffff1614610894576040517f08c379a000000000000000000000000000000000000000000000000000000000815260040161088b90611755565b60405180910390fd5b6000801b600160003373ffffffffffffffffffffffffffffffffffffffff1673ffffffffffffffffffffffffffffffffffffffff168152602001908152602001600020541415610919576040517f08c379a000000000000000000000000000000000000000000000000000000000815260040161091090611795565b60405180910390fd5b60001515600b60003373ffffffffffffffffffffffffffffffffffffffff1673ffffffffffffffffffffffffffffffffffffffff16815260200190815260200160002060010160149054906101000a900460ff161515146109af576040517f08c379a00000000000000000000000000000000000000000000000000000000081526004016109a6906117d5565b60405180910390fd5b6000600160003373ffffffffffffffffffffffffffffffffffffffff1673ffffffffffffffffffffffffffffffffffffffff1681526020019081526020016000205490506000610a008484346113e5565b9050808214610a44576040517f08c379a0000000000000000000000000000000000000000000000000000000008152600401610a3b90611735565b60405180910390fd5b6002600001600881819054906101000a900463ffffffff1680929190610a69906119c6565b91906101000a81548163ffffffff021916908363ffffffff1602179055505060011515600a60008573ffffffffffffffffffffffffffffffffffffffff1673ffffffffffffffffffffffffffffffffffffffff16815260200190815260200160002060020160009054906101000a900460ff1615151415610e1f57600e339080600181540180825580915050600190039060005260206000200160009091909190916101000a81548173ffffffffffffffffffffffffffffffffffffffff021916908373ffffffffffffffffffffffffffffffffffffffff16021790555060405180606001604052803481526020018473ffffffffffffffffffffffffffffffffffffffff16815260200160011515815250600b60003373ffffffffffffffffffffffffffffffffffffffff1673ffffffffffffffffffffffffffffffffffffffff1681526020019081526020016000206000820151816000015560208201518160010160006101000a81548173ffffffffffffffffffffffffffffffffffffffff021916908373ffffffffffffffffffffffffffffffffffffffff16021790555060408201518160010160146101000a81548160ff02191690831515021790555090505034600a60008573ffffffffffffffffffffffffffffffffffffffff1673ffffffffffffffffffffffffffffffffffffffff1681526020019081526020016000206001016000828254610c809190611858565b925050819055503460086000828254610c999190611858565b92505081905550600360010154600a60008573ffffffffffffffffffffffffffffffffffffffff1673ffffffffffffffffffffffffffffffffffffffff168152602001908152602001600020600101541115610d845782600360000160006101000a81548173ffffffffffffffffffffffffffffffffffffffff021916908373ffffffffffffffffffffffffffffffffffffffff160217905550600a60008473ffffffffffffffffffffffffffffffffffffffff1673ffffffffffffffffffffffffffffffffffffffff16815260200190815260200160002060010154600360010181905550610e1a565b600360010154600a60008573ffffffffffffffffffffffffffffffffffffffff1673ffffffffffffffffffffffffffffffffffffffff168152602001908152602001600020600101541415610e19576000600360000160006101000a81548173ffffffffffffffffffffffffffffffffffffffff021916908373ffffffffffffffffffffffffffffffffffffffff1602179055505b5b61139e565b60011515600960008573ffffffffffffffffffffffffffffffffffffffff1673ffffffffffffffffffffffffffffffffffffffff16815260200190815260200160002060020160009054906101000a900460ff161515141561134f57600e339080600181540180825580915050600190039060005260206000200160009091909190916101000a81548173ffffffffffffffffffffffffffffffffffffffff021916908373ffffffffffffffffffffffffffffffffffffffff16021790555060405180606001604052803481526020018473ffffffffffffffffffffffffffffffffffffffff16815260200160011515815250600b60003373ffffffffffffffffffffffffffffffffffffffff1673ffffffffffffffffffffffffffffffffffffffff1681526020019081526020016000206000820151816000015560208201518160010160006101000a81548173ffffffffffffffffffffffffffffffffffffffff021916908373ffffffffffffffffffffffffffffffffffffffff16021790555060408201518160010160146101000a81548160ff02191690831515021790555090505034600960008573ffffffffffffffffffffffffffffffffffffffff1673ffffffffffffffffffffffffffffffffffffffff16815260200190815260200160002060000160008282546110179190611858565b92505081905550600960008473ffffffffffffffffffffffffffffffffffffffff1673ffffffffffffffffffffffffffffffffffffffff16815260200190815260200160002060010160008154809291906110719061197d565b919050555034600860008282546110889190611858565b92505081905550600560010154600960008573ffffffffffffffffffffffffffffffffffffffff1673ffffffffffffffffffffffffffffffffffffffff16815260200190815260200160002060000154118061117c5750600560010154600960008573ffffffffffffffffffffffffffffffffffffffff1673ffffffffffffffffffffffffffffffffffffffff1681526020019081526020016000206000015414801561117b5750600560020154600960008573ffffffffffffffffffffffffffffffffffffffff1673ffffffffffffffffffffffffffffffffffffffff16815260200190815260200160002060010154115b5b156112625782600560000160006101000a81548173ffffffffffffffffffffffffffffffffffffffff021916908373ffffffffffffffffffffffffffffffffffffffff160217905550600960008473ffffffffffffffffffffffffffffffffffffffff1673ffffffffffffffffffffffffffffffffffffffff16815260200190815260200160002060000154600560010181905550600960008473ffffffffffffffffffffffffffffffffffffffff1673ffffffffffffffffffffffffffffffffffffffff1681526020019081526020016000206001015460056002018190555061134a565b600560010154600960008573ffffffffffffffffffffffffffffffffffffffff1673ffffffffffffffffffffffffffffffffffffffff168152602001908152602001600020600001541480156112fe5750600560020154600960008573ffffffffffffffffffffffffffffffffffffffff1673ffffffffffffffffffffffffffffffffffffffff16815260200190815260200160002060010154145b15611349576000600560000160006101000a81548173ffffffffffffffffffffffffffffffffffffffff021916908373ffffffffffffffffffffffffffffffffffffffff1602179055505b5b61139d565b60003390508073ffffffffffffffffffffffffffffffffffffffff166108fc349081150290604051600060405180830381858888f1935050505015801561139a573d6000803e3d6000fd5b50505b5b7f389bc8f710c058e5d0507e8bd7a82953376bea3c5d11fddd2b31144904c5fc093334856040516113d1939291906116c3565b60405180910390a150505050565b60085481565b60008383836040516020016113fc93929190611810565b6040516020818303038152906040528051906020012090509392505050565b60008054906101000a900473ffffffffffffffffffffffffffffffffffffffff1681565b60008135905061144e81611c2e565b92915050565b60008135905061146381611c45565b92915050565b60008135905061147881611c5c565b92915050565b60006020828403121561149057600080fd5b600061149e84828501611454565b91505092915050565b600080604083850312156114ba57600080fd5b60006114c885828601611469565b92505060206114d98582860161143f565b9150509250929050565b6000806000606084860312156114f857600080fd5b600061150686828701611469565b93505060206115178682870161143f565b925050604061152886828701611469565b9150509250925092565b61153b81611947565b82525050565b61154a816118f1565b82525050565b611559816118df565b82525050565b61156881611903565b82525050565b600061157b602f83611847565b915061158682611a51565b604082019050919050565b600061159e603383611847565b91506115a982611aa0565b604082019050919050565b60006115c1603683611847565b91506115cc82611aef565b604082019050919050565b60006115e4601683611847565b91506115ef82611b3e565b602082019050919050565b6000611607602383611847565b915061161282611b67565b604082019050919050565b600061162a603c83611847565b915061163582611bb6565b604082019050919050565b600061164d601783611847565b915061165882611c05565b602082019050919050565b61166c8161192d565b82525050565b60006020820190506116876000830184611550565b92915050565b60006020820190506116a26000830184611532565b92915050565b60006020820190506116bd6000830184611541565b92915050565b60006060820190506116d86000830186611550565b6116e56020830185611663565b6116f26040830184611550565b949350505050565b600060208201905061170f600083018461155f565b92915050565b6000602082019050818103600083015261172e8161156e565b9050919050565b6000602082019050818103600083015261174e81611591565b9050919050565b6000602082019050818103600083015261176e816115b4565b9050919050565b6000602082019050818103600083015261178e816115d7565b9050919050565b600060208201905081810360008301526117ae816115fa565b9050919050565b600060208201905081810360008301526117ce8161161d565b9050919050565b600060208201905081810360008301526117ee81611640565b9050919050565b600060208201905061180a6000830184611663565b92915050565b60006060820190506118256000830186611663565b6118326020830185611550565b61183f6040830184611663565b949350505050565b600082825260208201905092915050565b60006118638261192d565b915061186e8361192d565b9250827fffffffffffffffffffffffffffffffffffffffffffffffffffffffffffffffff038211156118a3576118a26119f3565b5b828201905092915050565b60006118b98261192d565b91506118c48361192d565b9250826118d4576118d3611a22565b5b828204905092915050565b60006118ea8261190d565b9050919050565b60006118fc8261190d565b9050919050565b6000819050919050565b600073ffffffffffffffffffffffffffffffffffffffff82169050919050565b6000819050919050565b600063ffffffff82169050919050565b600061195282611959565b9050919050565b60006119648261196b565b9050919050565b60006119768261190d565b9050919050565b60006119888261192d565b91507fffffffffffffffffffffffffffffffffffffffffffffffffffffffffffffffff8214156119bb576119ba6119f3565b5b600182019050919050565b60006119d182611937565b915063ffffffff8214156119e8576119e76119f3565b5b600182019050919050565b7f4e487b7100000000000000000000000000000000000000000000000000000000600052601160045260246000fd5b7f4e487b7100000000000000000000000000000000000000000000000000000000600052601260045260246000fd5b7f43616e6e6f7420766f7465206e6f772c20766f74696e672071756f72756d206860008201527f6173206265656e20726561636865640000000000000000000000000000000000602082015250565b7f53656e7420656e76656c6f706520646f6573206e6f7420636f72726573706f6e60008201527f6420746f20746865206f6e652063617374656400000000000000000000000000602082015250565b7f43616e6e6f74206f70656e20616e20656e76656c6f70652c20766f74696e672060008201527f71756f72756d206e6f7420726561636865642079657400000000000000000000602082015250565b7f54686520656c656374696f6e7320617265206f76657200000000000000000000600082015250565b7f5468652073656e64657220686173206e6f742063617374656420616e7920766f60008201527f7465730000000000000000000000000000000000000000000000000000000000602082015250565b7f43616e6e6f7420636865636b207468652077696e6e65722c206e65656420746f60008201527f206f70656e20616c6c207468652073656e7420656e76656c6f70657300000000602082015250565b7f456e76656c6f706520616c7265616479206f70656e6564000000000000000000600082015250565b611c37816118df565b8114611c4257600080fd5b50565b611c4e81611903565b8114611c5957600080fd5b50565b611c658161192d565b8114611c7057600080fd5b5056fea2646970667358221220365a14f647d8a01bcecc49573ebb29a045b4f018269660a0dc4788c41672588d64736f6c63430008010033",
  "immutableReferences": {},
  "source": "pragma solidity 0.8.1;\n\ncontract Mayor {\n    \n    // Structs, events, and modifiers\n    \n    struct Register_candidate{\n        address candidate_address;\n        address coalition_address;\n    }\n\n    struct Voter {\n        uint soul;\n        address candidate;\n        bool opened;\n    }\n\n    struct Candidate{\n        uint soul;\n        uint voters_num;\n        bool init;\n        // Voter[] voters;\n    }\n\n    struct Coalition{\n        address[] members;\n        uint soul;\n        bool init;\n        // Voter[] voters;\n    }\n\n    struct Coalition_winner{\n        address addr;\n        uint soul;\n    }\n\n    struct Candidate_winner{\n        address addr;\n        uint soul;\n        uint voters_num;\n    }\n\n    // Data to manage the confirmation\n    struct Conditions {\n        uint32 quorum;\n        uint32 envelopes_casted;\n        uint32 envelopes_opened;\n    }\n    \n    event NewMayor(address _candidate);\n    event Sayonara(address _escrow);\n    event EnvelopeCast(address _voter);\n    event EnvelopeOpen(address _voter, uint _soul, address _candidate);\n    \n    // Someone can vote as long as the quorum is not reached\n    modifier canVote() {\n        require(voting_condition.envelopes_casted < voting_condition.quorum, \"Cannot vote now, voting quorum has been reached\");\n        _;   \n    }\n    \n    // Envelopes can be opened only after receiving the quorum\n    modifier canOpen() {\n        require(voting_condition.envelopes_casted == voting_condition.quorum, \"Cannot open an envelope, voting quorum not reached yet\");\n        _;\n    }\n    \n    // The outcome of the confirmation can be computed as soon as all the casted envelopes have been opened\n    modifier canCheckOutcome() {\n        require(voting_condition.envelopes_opened == voting_condition.quorum, \"Cannot check the winner, need to open all the sent envelopes\");\n        _;\n    }\n    \n    // State attributes\n    \n    // Initialization variables\n    address payable public escrow;\n\n    // Voting phase variables\n    mapping(address => bytes32) envelopes;\n\n    Conditions voting_condition;\n    Coalition_winner coalition_winner;\n    Candidate_winner candidate_winner;\n\n    uint public totSouls;\n    mapping (address => Candidate) candidates;\n    mapping (address => Coalition) coalitions;\n    mapping(address => Voter) voters;\n    address[] candidate_addrs;\n    address[] coalitions_addrs;\n    address[] voters_addrs;\n    bool elections_over; //Flag for avoid reentrancy in mayor_or_sayonara\n\n    /// @notice The constructor only initializes internal variables\n    /// @param _candidates (address) The address of the mayor candidate and optionally also the coaliton's address\n    /// @param _escrow (address) The address of the escrow account\n    /// @param _quorum (address) The number of voters required to finalize the confirmation\n    constructor(Register_candidate[] memory _candidates, address payable _escrow, uint32 _quorum) public {\n        for(uint i = 0; i < _candidates.length; i++){\n            address candidate_addr = _candidates[i].candidate_address;\n            address coalition_addr = _candidates[i].coalition_address;\n\n            require(coalitions[candidate_addr].init == false, \"The candidate cannot be a coalition\");\n            require(candidates[candidate_addr].init == false, \"The candidate is already registered\");\n\n            candidates[candidate_addr] = Candidate({soul: 0, voters_num:0, init: true});\n            candidate_addrs.push(candidate_addr);\n            \n            if(coalition_addr != address(0x0)){\n                require(candidates[coalition_addr].init == false, \"The coalition cannot be a candidate\");\n                coalitions[coalition_addr].init = true;\n                coalitions[coalition_addr].members.push(candidate_addr);\n                coalitions_addrs.push(coalition_addr);\n            }\n        }\n\n        escrow = _escrow;\n        voting_condition = Conditions({quorum: _quorum, envelopes_casted: 0, envelopes_opened: 0});\n    }\n\n\n    /// @notice Store a received voting envelope\n    /// @param _envelope The envelope represented as the keccak256 hash of (sigil, doblon, soul) \n    function cast_envelope(bytes32 _envelope) canVote public {\n        \n        if(envelopes[msg.sender] == 0x0) // => NEW, update on 17/05/2021\n            voting_condition.envelopes_casted++;\n\n        envelopes[msg.sender] = _envelope;\n        emit EnvelopeCast(msg.sender);\n    }\n    \n    \n    /// @notice Open an envelope and store the vote information\n    /// @param _sigil (uint) The secret sigil of a voter\n    /// @param _candidate (address) The voting preference\n    /// @dev The soul is sent as crypto\n    /// @dev Need to recompute the hash to validate the envelope previously casted\n    function open_envelope(uint _sigil, address _candidate) canOpen public payable {       \n        require(envelopes[msg.sender] != 0x0, \"The sender has not casted any votes\");\n        require(voters[msg.sender].opened == false, \"Envelope already opened\");\n        \n        bytes32 _casted_envelope = envelopes[msg.sender];\n        bytes32 _sent_envelope = compute_envelope(_sigil, _candidate, msg.value);\n\n        require(_casted_envelope == _sent_envelope, \"Sent envelope does not correspond to the one casted\");\n        \n        voting_condition.envelopes_opened++;\n\n        if(coalitions[_candidate].init == true){ //if the voter has voted for a coalition\n            voters_addrs.push(msg.sender);\n            voters[msg.sender] = Voter({soul: msg.value, candidate: _candidate, opened: true});\n            coalitions[_candidate].soul += msg.value;\n            totSouls+=msg.value;\n            \n            if(coalitions[_candidate].soul > coalition_winner.soul){\n                coalition_winner.addr = _candidate;\n                coalition_winner.soul = coalitions[_candidate].soul;\n            }\n            else if(coalitions[_candidate].soul == coalition_winner.soul){\n                coalition_winner.addr = address(0x0); //Reset the winner due to tie\n            }\n        }\n        else if(candidates[_candidate].init == true){\n            voters_addrs.push(msg.sender);\n            voters[msg.sender] = Voter({soul: msg.value, candidate: _candidate, opened: true});\n            candidates[_candidate].soul += msg.value;\n            candidates[_candidate].voters_num++;\n            totSouls+=msg.value;\n\n            if((candidates[_candidate].soul > candidate_winner.soul) || (candidates[_candidate].soul == candidate_winner.soul && candidates[_candidate].voters_num > candidate_winner.voters_num)){ //if _candiate has more soul or equal soul and more voters than the actual winner\n                candidate_winner.addr = _candidate;\n                candidate_winner.soul = candidates[_candidate].soul;\n                candidate_winner.voters_num = candidates[_candidate].voters_num;\n            }\n            else if(candidates[_candidate].soul == candidate_winner.soul && candidates[_candidate].voters_num == candidate_winner.voters_num){ //case of tie\n                candidate_winner.addr = address(0x0); //reset the winner\n            }\n           \n        }\n        else{\n            address payable voter = payable(msg.sender);\n            voter.transfer(msg.value); //the voter has voted for someone that is not a candidate or a coalition\n        }\n\n        emit EnvelopeOpen(msg.sender, msg.value, _candidate);\n    }\n    \n    \n    /// @notice Either confirm or kick out the candidate. Refund the electors who voted for the losing outcome\n    function mayor_or_sayonara() canCheckOutcome public {\n        require(elections_over == false, \"The elections are over\");\n        elections_over = true;\n        address payable winner;\n        uint winner_soul;\n\n        if(coalition_winner.addr != address(0x0) && coalition_winner.soul > totSouls/3){\n            winner = payable(coalition_winner.addr);\n            winner_soul = coalition_winner.soul;\n        }\n        else if(candidate_winner.addr != address(0x0)){\n            winner = payable(candidate_winner.addr);\n            winner_soul = candidate_winner.soul;\n        }\n        \n\n        if(winner != address(0x0)){\n            winner.transfer(winner_soul);\n\n            for(uint i = 0; i < voters_addrs.length; i++){\n                address payable voter = payable(voters_addrs[i]);\n                if(winner != voters[voter].candidate){\n                    voter.transfer(voters[voter].soul);\n                }\n            }\n\n            emit NewMayor(winner);\n        }\n        else{\n            escrow.transfer(totSouls);\n            emit Sayonara(escrow);\n        }\n    }\n \n \n    /// @notice Compute a voting envelope\n    /// @param _sigil (uint) The secret sigil of a voter\n    /// @param _candidate (address) The voting preference\n    /// @param _soul (uint) The soul associated to the vote\n    function compute_envelope(uint _sigil, address _candidate, uint _soul) public pure returns(bytes32) {\n        return keccak256(abi.encode(_sigil, _candidate, _soul));\n    }\n    \n}",
  "sourcePath": "/home/fausto/GitHub/P2P-systems-and-blockchains-2021/Final Project/contracts/Mayor.sol",
  "compiler": {
    "name": "solc",
    "version": "0.8.1+commit.df193b15.Emscripten.clang"
  },
  "schemaVersion": "3.4.1",
  "updatedAt": "2021-06-16T20:10:30.935Z",
  "networkType": "ethereum",
  "devdoc": {
    "kind": "dev",
    "methods": {
      "cast_envelope(bytes32)": {
        "params": {
          "_envelope": "The envelope represented as the keccak256 hash of (sigil, doblon, soul) "
        }
      },
      "compute_envelope(uint256,address,uint256)": {
        "params": {
          "_candidate": "(address) The voting preference",
          "_sigil": "(uint) The secret sigil of a voter",
          "_soul": "(uint) The soul associated to the vote"
        }
      },
      "constructor": {
        "params": {
          "_candidates": "(address) The address of the mayor candidate and optionally also the coaliton's address",
          "_escrow": "(address) The address of the escrow account",
          "_quorum": "(address) The number of voters required to finalize the confirmation"
        }
      },
      "open_envelope(uint256,address)": {
        "details": "The soul is sent as cryptoNeed to recompute the hash to validate the envelope previously casted",
        "params": {
          "_candidate": "(address) The voting preference",
          "_sigil": "(uint) The secret sigil of a voter"
        }
      }
    },
    "version": 1
  },
  "userdoc": {
    "kind": "user",
    "methods": {
      "cast_envelope(bytes32)": {
        "notice": "Store a received voting envelope"
      },
      "compute_envelope(uint256,address,uint256)": {
        "notice": "Compute a voting envelope"
      },
      "constructor": {
        "notice": "The constructor only initializes internal variables"
      },
      "mayor_or_sayonara()": {
        "notice": "Either confirm or kick out the candidate. Refund the electors who voted for the losing outcome"
      },
      "open_envelope(uint256,address)": {
        "notice": "Open an envelope and store the vote information"
      }
    },
    "version": 1
  }
}