{
  "contractName": "Mayor",
  "abi": [
    {
      "inputs": [
        {
          "components": [
            {
              "internalType": "address",
              "name": "candidate_address",
              "type": "address"
            },
            {
              "internalType": "address",
              "name": "coalition_address",
              "type": "address"
            }
          ],
          "internalType": "struct Mayor.Register_candidate[]",
          "name": "_candidates",
          "type": "tuple[]"
        },
        {
          "internalType": "address payable",
          "name": "_escrow",
          "type": "address"
        },
        {
          "internalType": "uint32",
          "name": "_quorum",
          "type": "uint32"
        }
      ],
      "stateMutability": "nonpayable",
      "type": "constructor"
    },
    {
      "anonymous": false,
      "inputs": [
        {
          "indexed": false,
          "internalType": "address",
          "name": "_voter",
          "type": "address"
        }
      ],
      "name": "EnvelopeCast",
      "type": "event"
    },
    {
      "anonymous": false,
      "inputs": [
        {
          "indexed": false,
          "internalType": "address",
          "name": "_voter",
          "type": "address"
        },
        {
          "indexed": false,
          "internalType": "uint256",
          "name": "_soul",
          "type": "uint256"
        },
        {
          "indexed": false,
          "internalType": "address",
          "name": "_candidate",
          "type": "address"
        }
      ],
      "name": "EnvelopeOpen",
      "type": "event"
    },
    {
      "anonymous": false,
      "inputs": [
        {
          "indexed": false,
          "internalType": "address",
          "name": "_candidate",
          "type": "address"
        }
      ],
      "name": "NewMayor",
      "type": "event"
    },
    {
      "anonymous": false,
      "inputs": [
        {
          "indexed": false,
          "internalType": "address",
          "name": "_escrow",
          "type": "address"
        }
      ],
      "name": "Sayonara",
      "type": "event"
    },
    {
      "inputs": [],
      "name": "escrow",
      "outputs": [
        {
          "internalType": "address payable",
          "name": "",
          "type": "address"
        }
      ],
      "stateMutability": "view",
      "type": "function",
      "constant": true
    },
    {
      "inputs": [],
      "name": "voting_condition",
      "outputs": [
        {
          "internalType": "uint32",
          "name": "quorum",
          "type": "uint32"
        },
        {
          "internalType": "uint32",
          "name": "envelopes_casted",
          "type": "uint32"
        },
        {
          "internalType": "uint32",
          "name": "envelopes_opened",
          "type": "uint32"
        }
      ],
      "stateMutability": "view",
      "type": "function",
      "constant": true
    },
    {
      "inputs": [
        {
          "internalType": "bytes32",
          "name": "_envelope",
          "type": "bytes32"
        }
      ],
      "name": "cast_envelope",
      "outputs": [],
      "stateMutability": "nonpayable",
      "type": "function"
    },
    {
      "inputs": [
        {
          "internalType": "uint256",
          "name": "_sigil",
          "type": "uint256"
        },
        {
          "internalType": "address",
          "name": "_candidate",
          "type": "address"
        }
      ],
      "name": "open_envelope",
      "outputs": [],
      "stateMutability": "payable",
      "type": "function",
      "payable": true
    },
    {
      "inputs": [],
      "name": "mayor_or_sayonara",
      "outputs": [],
      "stateMutability": "nonpayable",
      "type": "function"
    },
    {
      "inputs": [
        {
          "internalType": "uint256",
          "name": "_sigil",
          "type": "uint256"
        },
        {
          "internalType": "address",
          "name": "_candidate",
          "type": "address"
        },
        {
          "internalType": "uint256",
          "name": "_soul",
          "type": "uint256"
        }
      ],
      "name": "compute_envelope",
      "outputs": [
        {
          "internalType": "bytes32",
          "name": "",
          "type": "bytes32"
        }
      ],
      "stateMutability": "pure",
      "type": "function",
      "constant": true
    },
    {
      "inputs": [],
      "name": "get_candidate_addrs",
      "outputs": [
        {
          "internalType": "address[]",
          "name": "",
          "type": "address[]"
        }
      ],
      "stateMutability": "view",
      "type": "function",
      "constant": true
    },
    {
      "inputs": [],
      "name": "get_coalitions",
      "outputs": [
        {
          "components": [
            {
              "internalType": "address[]",
              "name": "members",
              "type": "address[]"
            },
            {
              "internalType": "address",
              "name": "addr",
              "type": "address"
            }
          ],
          "internalType": "struct Mayor.Return_coalition[]",
          "name": "",
          "type": "tuple[]"
        }
      ],
      "stateMutability": "view",
      "type": "function",
      "constant": true
    },
    {
      "inputs": [],
      "name": "get_voting_condition",
      "outputs": [
        {
          "internalType": "uint32",
          "name": "",
          "type": "uint32"
        },
        {
          "internalType": "uint32",
          "name": "",
          "type": "uint32"
        },
        {
          "internalType": "uint32",
          "name": "",
          "type": "uint32"
        }
      ],
      "stateMutability": "view",
      "type": "function",
      "constant": true
    }
  ],
  "bytecode": "0x60806040523480156200001157600080fd5b5060405162002fc438038062002fc48339818101604052810190620000379190620007d6565b60005b8351811015620005a957600084828151811062000080577f4e487b7100000000000000000000000000000000000000000000000000000000600052603260045260246000fd5b60200260200101516000015190506000858381518110620000ca577f4e487b7100000000000000000000000000000000000000000000000000000000600052603260045260246000fd5b602002602001015160200151905060001515600a60008473ffffffffffffffffffffffffffffffffffffffff1673ffffffffffffffffffffffffffffffffffffffff16815260200190815260200160002060020160009054906101000a900460ff1615151462000171576040517f08c379a00000000000000000000000000000000000000000000000000000000081526004016200016890620008ba565b60405180910390fd5b60001515600960008473ffffffffffffffffffffffffffffffffffffffff1673ffffffffffffffffffffffffffffffffffffffff16815260200190815260200160002060020160009054906101000a900460ff161515146200020a576040517f08c379a00000000000000000000000000000000000000000000000000000000081526004016200020190620008fe565b60405180910390fd5b6040518060600160405280600081526020016000815260200160011515815250600960008473ffffffffffffffffffffffffffffffffffffffff1673ffffffffffffffffffffffffffffffffffffffff168152602001908152602001600020600082015181600001556020820151816001015560408201518160020160006101000a81548160ff021916908315150217905550905050600c829080600181540180825580915050600190039060005260206000200160009091909190916101000a81548173ffffffffffffffffffffffffffffffffffffffff021916908373ffffffffffffffffffffffffffffffffffffffff160217905550600073ffffffffffffffffffffffffffffffffffffffff168173ffffffffffffffffffffffffffffffffffffffff1614620005915760001515600960008373ffffffffffffffffffffffffffffffffffffffff1673ffffffffffffffffffffffffffffffffffffffff16815260200190815260200160002060020160009054906101000a900460ff16151514620003d1576040517f08c379a0000000000000000000000000000000000000000000000000000000008152600401620003c890620008dc565b60405180910390fd5b600a60008273ffffffffffffffffffffffffffffffffffffffff1673ffffffffffffffffffffffffffffffffffffffff168152602001908152602001600020600001829080600181540180825580915050600190039060005260206000200160009091909190916101000a81548173ffffffffffffffffffffffffffffffffffffffff021916908373ffffffffffffffffffffffffffffffffffffffff16021790555060001515600a60008373ffffffffffffffffffffffffffffffffffffffff1673ffffffffffffffffffffffffffffffffffffffff16815260200190815260200160002060020160009054906101000a900460ff161515141562000590576001600a60008373ffffffffffffffffffffffffffffffffffffffff1673ffffffffffffffffffffffffffffffffffffffff16815260200190815260200160002060020160006101000a81548160ff021916908315150217905550600d819080600181540180825580915050600190039060005260206000200160009091909190916101000a81548173ffffffffffffffffffffffffffffffffffffffff021916908373ffffffffffffffffffffffffffffffffffffffff1602179055505b5b50508080620005a09062000a21565b9150506200003a565b50816000806101000a81548173ffffffffffffffffffffffffffffffffffffffff021916908373ffffffffffffffffffffffffffffffffffffffff16021790555060405180606001604052808263ffffffff168152602001600063ffffffff168152602001600063ffffffff16815250600260008201518160000160006101000a81548163ffffffff021916908363ffffffff16021790555060208201518160000160046101000a81548163ffffffff021916908363ffffffff16021790555060408201518160000160086101000a81548163ffffffff021916908363ffffffff16021790555090505050505062000c19565b6000620006b3620006ad8462000949565b62000920565b90508083825260208201905082856040860282011115620006d357600080fd5b60005b85811015620007075781620006ec88826200076c565b845260208401935060408301925050600181019050620006d6565b5050509392505050565b600081519050620007228162000bcb565b92915050565b600081519050620007398162000be5565b92915050565b600082601f8301126200075157600080fd5b8151620007638482602086016200069c565b91505092915050565b6000604082840312156200077f57600080fd5b6200078b604062000920565b905060006200079d8482850162000711565b6000830152506020620007b38482850162000711565b60208301525092915050565b600081519050620007d08162000bff565b92915050565b600080600060608486031215620007ec57600080fd5b600084015167ffffffffffffffff8111156200080757600080fd5b62000815868287016200073f565b9350506020620008288682870162000728565b92505060406200083b86828701620007bf565b9150509250925092565b60006200085460238362000978565b9150620008618262000ade565b604082019050919050565b60006200087b60238362000978565b9150620008888262000b2d565b604082019050919050565b6000620008a260238362000978565b9150620008af8262000b7c565b604082019050919050565b60006020820190508181036000830152620008d58162000845565b9050919050565b60006020820190508181036000830152620008f7816200086c565b9050919050565b60006020820190508181036000830152620009198162000893565b9050919050565b60006200092c6200093f565b90506200093a8282620009eb565b919050565b6000604051905090565b600067ffffffffffffffff82111562000967576200096662000a9e565b5b602082029050602081019050919050565b600082825260208201905092915050565b60006200099682620009b1565b9050919050565b6000620009aa82620009b1565b9050919050565b600073ffffffffffffffffffffffffffffffffffffffff82169050919050565b6000819050919050565b600063ffffffff82169050919050565b620009f68262000acd565b810181811067ffffffffffffffff8211171562000a185762000a1762000a9e565b5b80604052505050565b600062000a2e82620009d1565b91507fffffffffffffffffffffffffffffffffffffffffffffffffffffffffffffffff82141562000a645762000a6362000a6f565b5b600182019050919050565b7f4e487b7100000000000000000000000000000000000000000000000000000000600052601160045260246000fd5b7f4e487b7100000000000000000000000000000000000000000000000000000000600052604160045260246000fd5b6000601f19601f8301169050919050565b7f5468652063616e6469646174652063616e6e6f74206265206120636f616c697460008201527f696f6e0000000000000000000000000000000000000000000000000000000000602082015250565b7f54686520636f616c6974696f6e2063616e6e6f7420626520612063616e64696460008201527f6174650000000000000000000000000000000000000000000000000000000000602082015250565b7f5468652063616e64696461746520697320616c7265616479207265676973746560008201527f7265640000000000000000000000000000000000000000000000000000000000602082015250565b62000bd68162000989565b811462000be257600080fd5b50565b62000bf0816200099d565b811462000bfc57600080fd5b50565b62000c0a81620009db565b811462000c1657600080fd5b50565b61239b8062000c296000396000f3fe6080604052600436106100865760003560e01c80638df2c93d116100595780638df2c93d14610112578063c586ff671461013d578063e2fdcc171461017a578063ed259f0a146101a5578063ef5d9e94146101d257610086565b8063056986121461008b5780631c9a34e3146100a25780634c2afb13146100cb5780635a26164b146100f6575b600080fd5b34801561009757600080fd5b506100a06101ff565b005b3480156100ae57600080fd5b506100c960048036038101906100c491906118d5565b61074d565b005b3480156100d757600080fd5b506100e06108d2565b6040516100ed9190611d2b565b60405180910390f35b610110600480360381019061010b91906118fe565b610b21565b005b34801561011e57600080fd5b506101276116e4565b6040516101349190611d09565b60405180910390f35b34801561014957600080fd5b50610164600480360381019061015f919061193a565b611772565b6040516101719190611d4d565b60405180910390f35b34801561018657600080fd5b5061018f6117a8565b60405161019c9190611cb7565b60405180910390f35b3480156101b157600080fd5b506101ba6117cc565b6040516101c993929190611e7f565b60405180910390f35b3480156101de57600080fd5b506101e7611814565b6040516101f693929190611e7f565b60405180910390f35b600260000160009054906101000a900463ffffffff1663ffffffff16600260000160089054906101000a900463ffffffff1663ffffffff1614610277576040517f08c379a000000000000000000000000000000000000000000000000000000000815260040161026e90611e08565b60405180910390fd5b60001515600f60009054906101000a900460ff161515146102cd576040517f08c379a00000000000000000000000000000000000000000000000000000000081526004016102c490611dc8565b60405180910390fd5b6001600f60006101000a81548160ff021916908315150217905550600080600073ffffffffffffffffffffffffffffffffffffffff16600360000160009054906101000a900473ffffffffffffffffffffffffffffffffffffffff1673ffffffffffffffffffffffffffffffffffffffff161415801561035f575060036008546103579190611fa0565b600360010154115b1561039957600360000160009054906101000a900473ffffffffffffffffffffffffffffffffffffffff1691506003600101549050610424565b600073ffffffffffffffffffffffffffffffffffffffff16600560000160009054906101000a900473ffffffffffffffffffffffffffffffffffffffff1673ffffffffffffffffffffffffffffffffffffffff161461042357600560000160009054906101000a900473ffffffffffffffffffffffffffffffffffffffff16915060056001015490505b5b600073ffffffffffffffffffffffffffffffffffffffff168273ffffffffffffffffffffffffffffffffffffffff1614610688578173ffffffffffffffffffffffffffffffffffffffff166108fc829081150290604051600060405180830381858888f1935050505015801561049e573d6000803e3d6000fd5b5060005b600e8054905081101561064b576000600e82815481106104eb577f4e487b7100000000000000000000000000000000000000000000000000000000600052603260045260246000fd5b9060005260206000200160009054906101000a900473ffffffffffffffffffffffffffffffffffffffff169050600b60008273ffffffffffffffffffffffffffffffffffffffff1673ffffffffffffffffffffffffffffffffffffffff16815260200190815260200160002060010160009054906101000a900473ffffffffffffffffffffffffffffffffffffffff1673ffffffffffffffffffffffffffffffffffffffff168473ffffffffffffffffffffffffffffffffffffffff1614610637578073ffffffffffffffffffffffffffffffffffffffff166108fc600b60008473ffffffffffffffffffffffffffffffffffffffff1673ffffffffffffffffffffffffffffffffffffffff168152602001908152602001600020600001549081150290604051600060405180830381858888f19350505050158015610635573d6000803e3d6000fd5b505b5080806106439061206f565b9150506104a2565b507f871e83b983a039f59e0f4c08b833ff72e17dcba70607314804f13146995a8f768260405161067b9190611c9c565b60405180910390a1610749565b60008054906101000a900473ffffffffffffffffffffffffffffffffffffffff1673ffffffffffffffffffffffffffffffffffffffff166108fc6008549081150290604051600060405180830381858888f193505050501580156106f0573d6000803e3d6000fd5b507fa1134e3746de254ae26240f518fc8ba38299f6dcf7399d77c8a117857b1c46c560008054906101000a900473ffffffffffffffffffffffffffffffffffffffff166040516107409190611c9c565b60405180910390a15b5050565b600260000160009054906101000a900463ffffffff1663ffffffff16600260000160049054906101000a900463ffffffff1663ffffffff16106107c5576040517f08c379a00000000000000000000000000000000000000000000000000000000081526004016107bc90611d68565b60405180910390fd5b6000801b600160003373ffffffffffffffffffffffffffffffffffffffff1673ffffffffffffffffffffffffffffffffffffffff168152602001908152602001600020541415610854576002600001600481819054906101000a900463ffffffff1680929190610834906120b8565b91906101000a81548163ffffffff021916908363ffffffff160217905550505b80600160003373ffffffffffffffffffffffffffffffffffffffff1673ffffffffffffffffffffffffffffffffffffffff168152602001908152602001600020819055507f8033de21ae72f21fa8773c90e60e7a5188cb8e44b97f487a5c362a491882ae34336040516108c79190611c81565b60405180910390a150565b60606000600d8054905067ffffffffffffffff81111561091b577f4e487b7100000000000000000000000000000000000000000000000000000000600052604160045260246000fd5b60405190808252806020026020018201604052801561095457816020015b610941611866565b8152602001906001900390816109395790505b50905060005b600d80549050811015610b19576000600d82815481106109a3577f4e487b7100000000000000000000000000000000000000000000000000000000600052603260045260246000fd5b9060005260206000200160009054906101000a900473ffffffffffffffffffffffffffffffffffffffff1690506040518060400160405280600a60008473ffffffffffffffffffffffffffffffffffffffff1673ffffffffffffffffffffffffffffffffffffffff168152602001908152602001600020600001805480602002602001604051908101604052809291908181526020018280548015610a9d57602002820191906000526020600020905b8160009054906101000a900473ffffffffffffffffffffffffffffffffffffffff1673ffffffffffffffffffffffffffffffffffffffff1681526020019060010190808311610a53575b505050505081526020018273ffffffffffffffffffffffffffffffffffffffff16815250838381518110610afa577f4e487b7100000000000000000000000000000000000000000000000000000000600052603260045260246000fd5b6020026020010181905250508080610b119061206f565b91505061095a565b508091505090565b600260000160009054906101000a900463ffffffff1663ffffffff16600260000160049054906101000a900463ffffffff1663ffffffff1614610b99576040517f08c379a0000000000000000000000000000000000000000000000000000000008152600401610b9090611da8565b60405180910390fd5b6000801b600160003373ffffffffffffffffffffffffffffffffffffffff1673ffffffffffffffffffffffffffffffffffffffff168152602001908152602001600020541415610c1e576040517f08c379a0000000000000000000000000000000000000000000000000000000008152600401610c1590611de8565b60405180910390fd5b60001515600b60003373ffffffffffffffffffffffffffffffffffffffff1673ffffffffffffffffffffffffffffffffffffffff16815260200190815260200160002060010160149054906101000a900460ff16151514610cb4576040517f08c379a0000000000000000000000000000000000000000000000000000000008152600401610cab90611e28565b60405180910390fd5b6000600160003373ffffffffffffffffffffffffffffffffffffffff1673ffffffffffffffffffffffffffffffffffffffff1681526020019081526020016000205490506000610d05848434611772565b9050808214610d49576040517f08c379a0000000000000000000000000000000000000000000000000000000008152600401610d4090611d88565b60405180910390fd5b6002600001600881819054906101000a900463ffffffff1680929190610d6e906120b8565b91906101000a81548163ffffffff021916908363ffffffff1602179055505060011515600a60008573ffffffffffffffffffffffffffffffffffffffff1673ffffffffffffffffffffffffffffffffffffffff16815260200190815260200160002060020160009054906101000a900460ff161515141561112457600e339080600181540180825580915050600190039060005260206000200160009091909190916101000a81548173ffffffffffffffffffffffffffffffffffffffff021916908373ffffffffffffffffffffffffffffffffffffffff16021790555060405180606001604052803481526020018473ffffffffffffffffffffffffffffffffffffffff16815260200160011515815250600b60003373ffffffffffffffffffffffffffffffffffffffff1673ffffffffffffffffffffffffffffffffffffffff1681526020019081526020016000206000820151816000015560208201518160010160006101000a81548173ffffffffffffffffffffffffffffffffffffffff021916908373ffffffffffffffffffffffffffffffffffffffff16021790555060408201518160010160146101000a81548160ff02191690831515021790555090505034600a60008573ffffffffffffffffffffffffffffffffffffffff1673ffffffffffffffffffffffffffffffffffffffff1681526020019081526020016000206001016000828254610f859190611f4a565b925050819055503460086000828254610f9e9190611f4a565b92505081905550600360010154600a60008573ffffffffffffffffffffffffffffffffffffffff1673ffffffffffffffffffffffffffffffffffffffff1681526020019081526020016000206001015411156110895782600360000160006101000a81548173ffffffffffffffffffffffffffffffffffffffff021916908373ffffffffffffffffffffffffffffffffffffffff160217905550600a60008473ffffffffffffffffffffffffffffffffffffffff1673ffffffffffffffffffffffffffffffffffffffff1681526020019081526020016000206001015460036001018190555061111f565b600360010154600a60008573ffffffffffffffffffffffffffffffffffffffff1673ffffffffffffffffffffffffffffffffffffffff16815260200190815260200160002060010154141561111e576000600360000160006101000a81548173ffffffffffffffffffffffffffffffffffffffff021916908373ffffffffffffffffffffffffffffffffffffffff1602179055505b5b6116a3565b60011515600960008573ffffffffffffffffffffffffffffffffffffffff1673ffffffffffffffffffffffffffffffffffffffff16815260200190815260200160002060020160009054906101000a900460ff161515141561165457600e339080600181540180825580915050600190039060005260206000200160009091909190916101000a81548173ffffffffffffffffffffffffffffffffffffffff021916908373ffffffffffffffffffffffffffffffffffffffff16021790555060405180606001604052803481526020018473ffffffffffffffffffffffffffffffffffffffff16815260200160011515815250600b60003373ffffffffffffffffffffffffffffffffffffffff1673ffffffffffffffffffffffffffffffffffffffff1681526020019081526020016000206000820151816000015560208201518160010160006101000a81548173ffffffffffffffffffffffffffffffffffffffff021916908373ffffffffffffffffffffffffffffffffffffffff16021790555060408201518160010160146101000a81548160ff02191690831515021790555090505034600960008573ffffffffffffffffffffffffffffffffffffffff1673ffffffffffffffffffffffffffffffffffffffff168152602001908152602001600020600001600082825461131c9190611f4a565b92505081905550600960008473ffffffffffffffffffffffffffffffffffffffff1673ffffffffffffffffffffffffffffffffffffffff16815260200190815260200160002060010160008154809291906113769061206f565b9190505550346008600082825461138d9190611f4a565b92505081905550600560010154600960008573ffffffffffffffffffffffffffffffffffffffff1673ffffffffffffffffffffffffffffffffffffffff1681526020019081526020016000206000015411806114815750600560010154600960008573ffffffffffffffffffffffffffffffffffffffff1673ffffffffffffffffffffffffffffffffffffffff168152602001908152602001600020600001541480156114805750600560020154600960008573ffffffffffffffffffffffffffffffffffffffff1673ffffffffffffffffffffffffffffffffffffffff16815260200190815260200160002060010154115b5b156115675782600560000160006101000a81548173ffffffffffffffffffffffffffffffffffffffff021916908373ffffffffffffffffffffffffffffffffffffffff160217905550600960008473ffffffffffffffffffffffffffffffffffffffff1673ffffffffffffffffffffffffffffffffffffffff16815260200190815260200160002060000154600560010181905550600960008473ffffffffffffffffffffffffffffffffffffffff1673ffffffffffffffffffffffffffffffffffffffff1681526020019081526020016000206001015460056002018190555061164f565b600560010154600960008573ffffffffffffffffffffffffffffffffffffffff1673ffffffffffffffffffffffffffffffffffffffff168152602001908152602001600020600001541480156116035750600560020154600960008573ffffffffffffffffffffffffffffffffffffffff1673ffffffffffffffffffffffffffffffffffffffff16815260200190815260200160002060010154145b1561164e576000600560000160006101000a81548173ffffffffffffffffffffffffffffffffffffffff021916908373ffffffffffffffffffffffffffffffffffffffff1602179055505b5b6116a2565b60003390508073ffffffffffffffffffffffffffffffffffffffff166108fc349081150290604051600060405180830381858888f1935050505015801561169f573d6000803e3d6000fd5b50505b5b7f389bc8f710c058e5d0507e8bd7a82953376bea3c5d11fddd2b31144904c5fc093334856040516116d693929190611cd2565b60405180910390a150505050565b6060600c80548060200260200160405190810160405280929190818152602001828054801561176857602002820191906000526020600020905b8160009054906101000a900473ffffffffffffffffffffffffffffffffffffffff1673ffffffffffffffffffffffffffffffffffffffff168152602001906001019080831161171e575b5050505050905090565b600083838360405160200161178993929190611e48565b6040516020818303038152906040528051906020012090509392505050565b60008054906101000a900473ffffffffffffffffffffffffffffffffffffffff1681565b60028060000160009054906101000a900463ffffffff16908060000160049054906101000a900463ffffffff16908060000160089054906101000a900463ffffffff16905083565b6000806000600260000160009054906101000a900463ffffffff16600260000160049054906101000a900463ffffffff16600260000160089054906101000a900463ffffffff16925092509250909192565b604051806040016040528060608152602001600073ffffffffffffffffffffffffffffffffffffffff1681525090565b6000813590506118a581612320565b92915050565b6000813590506118ba81612337565b92915050565b6000813590506118cf8161234e565b92915050565b6000602082840312156118e757600080fd5b60006118f5848285016118ab565b91505092915050565b6000806040838503121561191157600080fd5b600061191f858286016118c0565b925050602061193085828601611896565b9150509250929050565b60008060006060848603121561194f57600080fd5b600061195d868287016118c0565b935050602061196e86828701611896565b925050604061197f868287016118c0565b9150509250925092565b600061199583836119d3565b60208301905092915050565b60006119ad8383611c26565b905092915050565b6119be81612039565b82525050565b6119cd81611fe3565b82525050565b6119dc81611fd1565b82525050565b6119eb81611fd1565b82525050565b60006119fc82611ed6565b611a068185611f06565b9350611a1183611eb6565b8060005b83811015611a42578151611a298882611989565b9750611a3483611eec565b925050600181019050611a15565b5085935050505092915050565b6000611a5a82611ed6565b611a648185611f17565b9350611a6f83611eb6565b8060005b83811015611aa0578151611a878882611989565b9750611a9283611eec565b925050600181019050611a73565b5085935050505092915050565b6000611ab882611ee1565b611ac28185611f28565b935083602082028501611ad485611ec6565b8060005b85811015611b105784840389528151611af185826119a1565b9450611afc83611ef9565b925060208a01995050600181019050611ad8565b50829750879550505050505092915050565b611b2b81611ff5565b82525050565b6000611b3e602f83611f39565b9150611b4982612143565b604082019050919050565b6000611b61603383611f39565b9150611b6c82612192565b604082019050919050565b6000611b84603683611f39565b9150611b8f826121e1565b604082019050919050565b6000611ba7601683611f39565b9150611bb282612230565b602082019050919050565b6000611bca602383611f39565b9150611bd582612259565b604082019050919050565b6000611bed603c83611f39565b9150611bf8826122a8565b604082019050919050565b6000611c10601783611f39565b9150611c1b826122f7565b602082019050919050565b60006040830160008301518482036000860152611c4382826119f1565b9150506020830151611c5860208601826119d3565b508091505092915050565b611c6c8161201f565b82525050565b611c7b81612029565b82525050565b6000602082019050611c9660008301846119e2565b92915050565b6000602082019050611cb160008301846119b5565b92915050565b6000602082019050611ccc60008301846119c4565b92915050565b6000606082019050611ce760008301866119e2565b611cf46020830185611c63565b611d0160408301846119e2565b949350505050565b60006020820190508181036000830152611d238184611a4f565b905092915050565b60006020820190508181036000830152611d458184611aad565b905092915050565b6000602082019050611d626000830184611b22565b92915050565b60006020820190508181036000830152611d8181611b31565b9050919050565b60006020820190508181036000830152611da181611b54565b9050919050565b60006020820190508181036000830152611dc181611b77565b9050919050565b60006020820190508181036000830152611de181611b9a565b9050919050565b60006020820190508181036000830152611e0181611bbd565b9050919050565b60006020820190508181036000830152611e2181611be0565b9050919050565b60006020820190508181036000830152611e4181611c03565b9050919050565b6000606082019050611e5d6000830186611c63565b611e6a60208301856119e2565b611e776040830184611c63565b949350505050565b6000606082019050611e946000830186611c72565b611ea16020830185611c72565b611eae6040830184611c72565b949350505050565b6000819050602082019050919050565b6000819050602082019050919050565b600081519050919050565b600081519050919050565b6000602082019050919050565b6000602082019050919050565b600082825260208201905092915050565b600082825260208201905092915050565b600082825260208201905092915050565b600082825260208201905092915050565b6000611f558261201f565b9150611f608361201f565b9250827fffffffffffffffffffffffffffffffffffffffffffffffffffffffffffffffff03821115611f9557611f946120e5565b5b828201905092915050565b6000611fab8261201f565b9150611fb68361201f565b925082611fc657611fc5612114565b5b828204905092915050565b6000611fdc82611fff565b9050919050565b6000611fee82611fff565b9050919050565b6000819050919050565b600073ffffffffffffffffffffffffffffffffffffffff82169050919050565b6000819050919050565b600063ffffffff82169050919050565b60006120448261204b565b9050919050565b60006120568261205d565b9050919050565b600061206882611fff565b9050919050565b600061207a8261201f565b91507fffffffffffffffffffffffffffffffffffffffffffffffffffffffffffffffff8214156120ad576120ac6120e5565b5b600182019050919050565b60006120c382612029565b915063ffffffff8214156120da576120d96120e5565b5b600182019050919050565b7f4e487b7100000000000000000000000000000000000000000000000000000000600052601160045260246000fd5b7f4e487b7100000000000000000000000000000000000000000000000000000000600052601260045260246000fd5b7f43616e6e6f7420766f7465206e6f772c20766f74696e672071756f72756d206860008201527f6173206265656e20726561636865640000000000000000000000000000000000602082015250565b7f53656e7420656e76656c6f706520646f6573206e6f7420636f72726573706f6e60008201527f6420746f20746865206f6e652063617374656400000000000000000000000000602082015250565b7f43616e6e6f74206f70656e20616e20656e76656c6f70652c20766f74696e672060008201527f71756f72756d206e6f7420726561636865642079657400000000000000000000602082015250565b7f54686520656c656374696f6e7320617265206f76657200000000000000000000600082015250565b7f5468652073656e64657220686173206e6f742063617374656420616e7920766f60008201527f7465730000000000000000000000000000000000000000000000000000000000602082015250565b7f43616e6e6f7420636865636b207468652077696e6e65722c206e65656420746f60008201527f206f70656e20616c6c207468652073656e7420656e76656c6f70657300000000602082015250565b7f456e76656c6f706520616c7265616479206f70656e6564000000000000000000600082015250565b61232981611fd1565b811461233457600080fd5b50565b61234081611ff5565b811461234b57600080fd5b50565b6123578161201f565b811461236257600080fd5b5056fea264697066735822122017aac040ca378256428e84c51af8b50d7312164d0a94d3d95bda13732cae301f64736f6c63430008010033",
  "immutableReferences": {},
  "source": "pragma solidity 0.8.1;\n\ncontract Mayor {\n    \n    // Structs, events, and modifiers\n    \n    struct Register_candidate{\n        address candidate_address;\n        address coalition_address;\n    }\n\n    struct Voter {\n        uint soul;\n        address candidate;\n        bool opened;\n    }\n\n    struct Candidate{\n        uint soul;\n        uint voters_num;\n        bool init;\n    }\n\n    struct Coalition{\n        address[] members;\n        uint soul;\n        bool init;\n    }\n\n    struct Return_coalition{\n        address[] members;\n        address addr;\n    }\n\n    struct Coalition_winner{\n        address addr;\n        uint soul;\n    }\n\n    struct Candidate_winner{\n        address addr;\n        uint soul;\n        uint voters_num;\n    }\n\n    // Data to manage the confirmation\n    struct Conditions {\n        uint32 quorum;\n        uint32 envelopes_casted;\n        uint32 envelopes_opened;\n    }\n    \n    event NewMayor(address _candidate);\n    event Sayonara(address _escrow);\n    event EnvelopeCast(address _voter);\n    event EnvelopeOpen(address _voter, uint _soul, address _candidate);\n    \n    // Someone can vote as long as the quorum is not reached\n    modifier canVote() {\n        require(voting_condition.envelopes_casted < voting_condition.quorum, \"Cannot vote now, voting quorum has been reached\");\n        _;   \n    }\n    \n    // Envelopes can be opened only after receiving the quorum\n    modifier canOpen() {\n        require(voting_condition.envelopes_casted == voting_condition.quorum, \"Cannot open an envelope, voting quorum not reached yet\");\n        _;\n    }\n    \n    // The outcome of the confirmation can be computed as soon as all the casted envelopes have been opened\n    modifier canCheckOutcome() {\n        require(voting_condition.envelopes_opened == voting_condition.quorum, \"Cannot check the winner, need to open all the sent envelopes\");\n        _;\n    }\n    \n    // State attributes\n    \n    // Initialization variables\n    address payable public escrow;\n\n    // Voting phase variables\n    mapping(address => bytes32) envelopes;\n\n    Conditions public voting_condition;\n    Coalition_winner coalition_winner;\n    Candidate_winner candidate_winner;\n\n    uint totSouls;\n    mapping (address => Candidate) candidates;\n    mapping (address => Coalition) coalitions;\n    mapping(address => Voter) voters;\n    address[] candidates_addrs;\n    address[] coalitions_addrs;\n    address[] voters_addrs;\n    bool elections_over; //Flag for avoid reentrancy in mayor_or_sayonara\n\n    /// @notice The constructor only initializes internal variables\n    /// @param _candidates (address) The address of the mayor candidate and optionally also the coaliton's address\n    /// @param _escrow (address) The address of the escrow account\n    /// @param _quorum (address) The number of voters required to finalize the confirmation\n    constructor(Register_candidate[] memory _candidates, address payable _escrow, uint32 _quorum) public {\n        for(uint i = 0; i < _candidates.length; i++){\n            address candidate_addr = _candidates[i].candidate_address;\n            address coalition_addr = _candidates[i].coalition_address;\n\n            require(coalitions[candidate_addr].init == false, \"The candidate cannot be a coalition\");\n            require(candidates[candidate_addr].init == false, \"The candidate is already registered\");\n\n            candidates[candidate_addr] = Candidate({soul: 0, voters_num:0, init: true});\n            candidates_addrs.push(candidate_addr);\n            \n            if(coalition_addr != address(0x0)){\n                require(candidates[coalition_addr].init == false, \"The coalition cannot be a candidate\");\n                coalitions[coalition_addr].members.push(candidate_addr);\n                \n                if(coalitions[coalition_addr].init == false){\n                    coalitions[coalition_addr].init = true;\n                    coalitions_addrs.push(coalition_addr);\n                }\n            }\n        }\n\n        escrow = _escrow;\n        voting_condition = Conditions({quorum: _quorum, envelopes_casted: 0, envelopes_opened: 0});\n    }\n\n\n    /// @notice Store a received voting envelope\n    /// @param _envelope The envelope represented as the keccak256 hash of (sigil, doblon, soul) \n    function cast_envelope(bytes32 _envelope) canVote public {\n        \n        if(envelopes[msg.sender] == 0x0) // => NEW, update on 17/05/2021\n            voting_condition.envelopes_casted++;\n\n        envelopes[msg.sender] = _envelope;\n        emit EnvelopeCast(msg.sender);\n    }\n    \n    \n    /// @notice Open an envelope and store the vote information\n    /// @param _sigil (uint) The secret sigil of a voter\n    /// @param _candidate (address) The voting preference\n    /// @dev The soul is sent as crypto\n    /// @dev Need to recompute the hash to validate the envelope previously casted\n    function open_envelope(uint _sigil, address _candidate) canOpen public payable {       \n        require(envelopes[msg.sender] != 0x0, \"The sender has not casted any votes\");\n        require(voters[msg.sender].opened == false, \"Envelope already opened\");\n        \n        bytes32 _casted_envelope = envelopes[msg.sender];\n        bytes32 _sent_envelope = compute_envelope(_sigil, _candidate, msg.value);\n\n        require(_casted_envelope == _sent_envelope, \"Sent envelope does not correspond to the one casted\");\n        \n        voting_condition.envelopes_opened++;\n\n        if(coalitions[_candidate].init == true){ //if the voter has voted for a coalition\n            voters_addrs.push(msg.sender);\n            voters[msg.sender] = Voter({soul: msg.value, candidate: _candidate, opened: true});\n            coalitions[_candidate].soul += msg.value;\n            totSouls+=msg.value;\n            \n            if(coalitions[_candidate].soul > coalition_winner.soul){\n                coalition_winner.addr = _candidate;\n                coalition_winner.soul = coalitions[_candidate].soul;\n            }\n            else if(coalitions[_candidate].soul == coalition_winner.soul){\n                coalition_winner.addr = address(0x0); //Reset the winner due to tie\n            }\n        }\n        else if(candidates[_candidate].init == true){\n            voters_addrs.push(msg.sender);\n            voters[msg.sender] = Voter({soul: msg.value, candidate: _candidate, opened: true});\n            candidates[_candidate].soul += msg.value;\n            candidates[_candidate].voters_num++;\n            totSouls+=msg.value;\n\n            if((candidates[_candidate].soul > candidate_winner.soul) || (candidates[_candidate].soul == candidate_winner.soul && candidates[_candidate].voters_num > candidate_winner.voters_num)){ //if _candiate has more soul or equal soul and more voters than the actual winner\n                candidate_winner.addr = _candidate;\n                candidate_winner.soul = candidates[_candidate].soul;\n                candidate_winner.voters_num = candidates[_candidate].voters_num;\n            }\n            else if(candidates[_candidate].soul == candidate_winner.soul && candidates[_candidate].voters_num == candidate_winner.voters_num){ //case of tie\n                candidate_winner.addr = address(0x0); //reset the winner\n            }\n           \n        }\n        else{\n            address payable voter = payable(msg.sender);\n            voter.transfer(msg.value); //the voter has voted for someone that is not a candidate or a coalition\n        }\n\n        emit EnvelopeOpen(msg.sender, msg.value, _candidate);\n    }\n    \n    \n    /// @notice Either confirm or kick out the candidate. Refund the electors who voted for the losing outcome\n    function mayor_or_sayonara() canCheckOutcome public {\n        require(elections_over == false, \"The elections are over\");\n        elections_over = true;\n        address payable winner;\n        uint winner_soul;\n\n        if(coalition_winner.addr != address(0x0) && coalition_winner.soul > totSouls/3){\n            winner = payable(coalition_winner.addr);\n            winner_soul = coalition_winner.soul;\n        }\n        else if(candidate_winner.addr != address(0x0)){\n            winner = payable(candidate_winner.addr);\n            winner_soul = candidate_winner.soul;\n        }\n        \n\n        if(winner != address(0x0)){\n            winner.transfer(winner_soul);\n\n            for(uint i = 0; i < voters_addrs.length; i++){\n                address payable voter = payable(voters_addrs[i]);\n                if(winner != voters[voter].candidate){\n                    voter.transfer(voters[voter].soul);\n                }\n            }\n\n            emit NewMayor(winner);\n        }\n        else{\n            escrow.transfer(totSouls);\n            emit Sayonara(escrow);\n        }\n    }\n \n \n    /// @notice Compute a voting envelope\n    /// @param _sigil (uint) The secret sigil of a voter\n    /// @param _candidate (address) The voting preference\n    /// @param _soul (uint) The soul associated to the vote\n    function compute_envelope(uint _sigil, address _candidate, uint _soul) public pure returns(bytes32) {\n        return keccak256(abi.encode(_sigil, _candidate, _soul));\n    }\n\n\n    function get_candidate_addrs() external view returns (address[] memory){\n        return candidates_addrs;\n    }\n\n    function get_coalitions() external view returns (Return_coalition[] memory){\n        Return_coalition[] memory coalitions_array = new Return_coalition[](coalitions_addrs.length);\n\n        for(uint i = 0; i < coalitions_addrs.length; i++){\n            address coalition = coalitions_addrs[i];\n            coalitions_array[i] = Return_coalition({members: coalitions[coalition].members, addr: coalition});\n        }\n\n        return coalitions_array;\n    }\n\n    function get_voting_condition() external view returns(uint32,uint32,uint32){\n        return (voting_condition.quorum,voting_condition.envelopes_casted,voting_condition.envelopes_opened);\n    }\n}",
  "sourcePath": "/home/fausto/GitHub/P2P-systems-and-blockchains-2021/Final Project/contracts/Mayor.sol",
  "compiler": {
    "name": "solc",
    "version": "0.8.1+commit.df193b15.Emscripten.clang"
  },
  "schemaVersion": "3.4.1",
  "updatedAt": "2021-06-18T19:01:04.200Z",
  "networkType": "ethereum",
  "devdoc": {
    "kind": "dev",
    "methods": {
      "cast_envelope(bytes32)": {
        "params": {
          "_envelope": "The envelope represented as the keccak256 hash of (sigil, doblon, soul) "
        }
      },
      "compute_envelope(uint256,address,uint256)": {
        "params": {
          "_candidate": "(address) The voting preference",
          "_sigil": "(uint) The secret sigil of a voter",
          "_soul": "(uint) The soul associated to the vote"
        }
      },
      "constructor": {
        "params": {
          "_candidates": "(address) The address of the mayor candidate and optionally also the coaliton's address",
          "_escrow": "(address) The address of the escrow account",
          "_quorum": "(address) The number of voters required to finalize the confirmation"
        }
      },
      "open_envelope(uint256,address)": {
        "details": "The soul is sent as cryptoNeed to recompute the hash to validate the envelope previously casted",
        "params": {
          "_candidate": "(address) The voting preference",
          "_sigil": "(uint) The secret sigil of a voter"
        }
      }
    },
    "version": 1
  },
  "userdoc": {
    "kind": "user",
    "methods": {
      "cast_envelope(bytes32)": {
        "notice": "Store a received voting envelope"
      },
      "compute_envelope(uint256,address,uint256)": {
        "notice": "Compute a voting envelope"
      },
      "constructor": {
        "notice": "The constructor only initializes internal variables"
      },
      "mayor_or_sayonara()": {
        "notice": "Either confirm or kick out the candidate. Refund the electors who voted for the losing outcome"
      },
      "open_envelope(uint256,address)": {
        "notice": "Open an envelope and store the vote information"
      }
    },
    "version": 1
  }
}